{
  "_format": "hh-sol-artifact-1",
  "contractName": "AirTor",
  "sourceName": "contracts/ator.sol",
  "abi": [
    {
      "inputs": [],
      "stateMutability": "payable",
      "type": "constructor"
    },
    {
      "anonymous": false,
      "inputs": [
        {
          "indexed": true,
          "internalType": "address",
          "name": "owner",
          "type": "address"
        },
        {
          "indexed": true,
          "internalType": "address",
          "name": "spender",
          "type": "address"
        },
        {
          "indexed": false,
          "internalType": "uint256",
          "name": "value",
          "type": "uint256"
        }
      ],
      "name": "Approval",
      "type": "event"
    },
    {
      "anonymous": false,
      "inputs": [
        {
          "indexed": false,
          "internalType": "address",
          "name": "sniper",
          "type": "address"
        }
      ],
      "name": "BotBlocked",
      "type": "event"
    },
    {
      "anonymous": false,
      "inputs": [],
      "name": "EnabledSelling",
      "type": "event"
    },
    {
      "anonymous": false,
      "inputs": [],
      "name": "EnabledTrading",
      "type": "event"
    },
    {
      "anonymous": false,
      "inputs": [
        {
          "indexed": true,
          "internalType": "address",
          "name": "account",
          "type": "address"
        },
        {
          "indexed": false,
          "internalType": "bool",
          "name": "isExcluded",
          "type": "bool"
        }
      ],
      "name": "ExcludeFromFees",
      "type": "event"
    },
    {
      "anonymous": false,
      "inputs": [
        {
          "indexed": false,
          "internalType": "address",
          "name": "_address",
          "type": "address"
        },
        {
          "indexed": false,
          "internalType": "bool",
          "name": "excluded",
          "type": "bool"
        }
      ],
      "name": "MaxTransactionExclusion",
      "type": "event"
    },
    {
      "anonymous": false,
      "inputs": [
        {
          "indexed": false,
          "internalType": "uint256",
          "name": "timestamp",
          "type": "uint256"
        }
      ],
      "name": "OwnerForcedSwapBack",
      "type": "event"
    },
    {
      "anonymous": false,
      "inputs": [
        {
          "indexed": true,
          "internalType": "address",
          "name": "previousOwner",
          "type": "address"
        },
        {
          "indexed": true,
          "internalType": "address",
          "name": "newOwner",
          "type": "address"
        }
      ],
      "name": "OwnershipTransferred",
      "type": "event"
    },
    {
      "anonymous": false,
      "inputs": [
        {
          "indexed": true,
          "internalType": "address",
          "name": "pair",
          "type": "address"
        },
        {
          "indexed": true,
          "internalType": "bool",
          "name": "value",
          "type": "bool"
        }
      ],
      "name": "SetAutomatedMarketMakerPair",
      "type": "event"
    },
    {
      "anonymous": false,
      "inputs": [
        {
          "indexed": false,
          "internalType": "uint256",
          "name": "tokensSwapped",
          "type": "uint256"
        },
        {
          "indexed": false,
          "internalType": "uint256",
          "name": "ethReceived",
          "type": "uint256"
        },
        {
          "indexed": false,
          "internalType": "uint256",
          "name": "tokensIntoLiquidity",
          "type": "uint256"
        }
      ],
      "name": "SwapAndLiquify",
      "type": "event"
    },
    {
      "anonymous": false,
      "inputs": [
        {
          "indexed": true,
          "internalType": "address",
          "name": "from",
          "type": "address"
        },
        {
          "indexed": true,
          "internalType": "address",
          "name": "to",
          "type": "address"
        },
        {
          "indexed": false,
          "internalType": "uint256",
          "name": "value",
          "type": "uint256"
        }
      ],
      "name": "Transfer",
      "type": "event"
    },
    {
      "anonymous": false,
      "inputs": [
        {
          "indexed": false,
          "internalType": "address",
          "name": "token",
          "type": "address"
        },
        {
          "indexed": false,
          "internalType": "uint256",
          "name": "amount",
          "type": "uint256"
        }
      ],
      "name": "TransferForeignToken",
      "type": "event"
    },
    {
      "anonymous": false,
      "inputs": [
        {
          "indexed": false,
          "internalType": "uint256",
          "name": "newAmount",
          "type": "uint256"
        }
      ],
      "name": "UpdatedMaxBuyAmount",
      "type": "event"
    },
    {
      "anonymous": false,
      "inputs": [
        {
          "indexed": false,
          "internalType": "uint256",
          "name": "newAmount",
          "type": "uint256"
        }
      ],
      "name": "UpdatedMaxSellAmount",
      "type": "event"
    },
    {
      "anonymous": false,
      "inputs": [
        {
          "indexed": false,
          "internalType": "uint256",
          "name": "newAmount",
          "type": "uint256"
        }
      ],
      "name": "UpdatedMaxWalletAmount",
      "type": "event"
    },
    {
      "anonymous": false,
      "inputs": [
        {
          "indexed": true,
          "internalType": "address",
          "name": "newWallet",
          "type": "address"
        }
      ],
      "name": "UpdatedOperationsAddress",
      "type": "event"
    },
    {
      "anonymous": false,
      "inputs": [
        {
          "indexed": false,
          "internalType": "uint256",
          "name": "amount",
          "type": "uint256"
        }
      ],
      "name": "UpdatedPrivateMaxSell",
      "type": "event"
    },
    {
      "anonymous": false,
      "inputs": [
        {
          "indexed": true,
          "internalType": "address",
          "name": "newWallet",
          "type": "address"
        }
      ],
      "name": "UpdatedTreasuryAddress",
      "type": "event"
    },
    {
      "inputs": [
        {
          "internalType": "address",
          "name": "",
          "type": "address"
        }
      ],
      "name": "_isExcludedMaxTransactionAmount",
      "outputs": [
        {
          "internalType": "bool",
          "name": "",
          "type": "bool"
        }
      ],
      "stateMutability": "view",
      "type": "function"
    },
    {
      "inputs": [
        {
          "internalType": "address",
          "name": "owner",
          "type": "address"
        },
        {
          "internalType": "address",
          "name": "spender",
          "type": "address"
        }
      ],
      "name": "allowance",
      "outputs": [
        {
          "internalType": "uint256",
          "name": "",
          "type": "uint256"
        }
      ],
      "stateMutability": "view",
      "type": "function"
    },
    {
      "inputs": [
        {
          "internalType": "address",
          "name": "spender",
          "type": "address"
        },
        {
          "internalType": "uint256",
          "name": "amount",
          "type": "uint256"
        }
      ],
      "name": "approve",
      "outputs": [
        {
          "internalType": "bool",
          "name": "",
          "type": "bool"
        }
      ],
      "stateMutability": "nonpayable",
      "type": "function"
    },
    {
      "inputs": [
        {
          "internalType": "address",
          "name": "",
          "type": "address"
        }
      ],
      "name": "automatedMarketMakerPairs",
      "outputs": [
        {
          "internalType": "bool",
          "name": "",
          "type": "bool"
        }
      ],
      "stateMutability": "view",
      "type": "function"
    },
    {
      "inputs": [
        {
          "internalType": "address",
          "name": "account",
          "type": "address"
        }
      ],
      "name": "balanceOf",
      "outputs": [
        {
          "internalType": "uint256",
          "name": "",
          "type": "uint256"
        }
      ],
      "stateMutability": "view",
      "type": "function"
    },
    {
      "inputs": [],
      "name": "blockForPenaltyEnd",
      "outputs": [
        {
          "internalType": "uint256",
          "name": "",
          "type": "uint256"
        }
      ],
      "stateMutability": "view",
      "type": "function"
    },
    {
      "inputs": [],
      "name": "botsCaught",
      "outputs": [
        {
          "internalType": "uint256",
          "name": "",
          "type": "uint256"
        }
      ],
      "stateMutability": "view",
      "type": "function"
    },
    {
      "inputs": [
        {
          "internalType": "address",
          "name": "",
          "type": "address"
        }
      ],
      "name": "boughtEarly",
      "outputs": [
        {
          "internalType": "bool",
          "name": "",
          "type": "bool"
        }
      ],
      "stateMutability": "view",
      "type": "function"
    },
    {
      "inputs": [],
      "name": "buyLiquidityFee",
      "outputs": [
        {
          "internalType": "uint256",
          "name": "",
          "type": "uint256"
        }
      ],
      "stateMutability": "view",
      "type": "function"
    },
    {
      "inputs": [],
      "name": "buyOperationsFee",
      "outputs": [
        {
          "internalType": "uint256",
          "name": "",
          "type": "uint256"
        }
      ],
      "stateMutability": "view",
      "type": "function"
    },
    {
      "inputs": [],
      "name": "buyTotalFees",
      "outputs": [
        {
          "internalType": "uint256",
          "name": "",
          "type": "uint256"
        }
      ],
      "stateMutability": "view",
      "type": "function"
    },
    {
      "inputs": [],
      "name": "buyTreasuryFee",
      "outputs": [
        {
          "internalType": "uint256",
          "name": "",
          "type": "uint256"
        }
      ],
      "stateMutability": "view",
      "type": "function"
    },
    {
      "inputs": [],
      "name": "decimals",
      "outputs": [
        {
          "internalType": "uint8",
          "name": "",
          "type": "uint8"
        }
      ],
      "stateMutability": "view",
      "type": "function"
    },
    {
      "inputs": [
        {
          "internalType": "address",
          "name": "spender",
          "type": "address"
        },
        {
          "internalType": "uint256",
          "name": "subtractedValue",
          "type": "uint256"
        }
      ],
      "name": "decreaseAllowance",
      "outputs": [
        {
          "internalType": "bool",
          "name": "",
          "type": "bool"
        }
      ],
      "stateMutability": "nonpayable",
      "type": "function"
    },
    {
      "inputs": [],
      "name": "dexRouter",
      "outputs": [
        {
          "internalType": "contract IDexRouter",
          "name": "",
          "type": "address"
        }
      ],
      "stateMutability": "view",
      "type": "function"
    },
    {
      "inputs": [],
      "name": "disableMarkBotsForever",
      "outputs": [],
      "stateMutability": "nonpayable",
      "type": "function"
    },
    {
      "inputs": [],
      "name": "disableTransferDelay",
      "outputs": [],
      "stateMutability": "nonpayable",
      "type": "function"
    },
    {
      "inputs": [],
      "name": "earlyBuyPenaltyInEffect",
      "outputs": [
        {
          "internalType": "bool",
          "name": "",
          "type": "bool"
        }
      ],
      "stateMutability": "view",
      "type": "function"
    },
    {
      "inputs": [
        {
          "internalType": "address",
          "name": "router",
          "type": "address"
        },
        {
          "internalType": "bool",
          "name": "_swapEnabled",
          "type": "bool"
        }
      ],
      "name": "emergencyUpdateRouter",
      "outputs": [],
      "stateMutability": "nonpayable",
      "type": "function"
    },
    {
      "inputs": [
        {
          "internalType": "uint256",
          "name": "blocksForPenalty",
          "type": "uint256"
        }
      ],
      "name": "enableTrading",
      "outputs": [],
      "stateMutability": "nonpayable",
      "type": "function"
    },
    {
      "inputs": [
        {
          "internalType": "address",
          "name": "account",
          "type": "address"
        },
        {
          "internalType": "bool",
          "name": "excluded",
          "type": "bool"
        }
      ],
      "name": "excludeFromFees",
      "outputs": [],
      "stateMutability": "nonpayable",
      "type": "function"
    },
    {
      "inputs": [
        {
          "internalType": "address",
          "name": "updAds",
          "type": "address"
        },
        {
          "internalType": "bool",
          "name": "isEx",
          "type": "bool"
        }
      ],
      "name": "excludeFromMaxTransaction",
      "outputs": [],
      "stateMutability": "nonpayable",
      "type": "function"
    },
    {
      "inputs": [],
      "name": "forceSwapBack",
      "outputs": [],
      "stateMutability": "nonpayable",
      "type": "function"
    },
    {
      "inputs": [],
      "name": "getEarlyBuyers",
      "outputs": [
        {
          "internalType": "address[]",
          "name": "",
          "type": "address[]"
        }
      ],
      "stateMutability": "view",
      "type": "function"
    },
    {
      "inputs": [
        {
          "internalType": "uint256",
          "name": "",
          "type": "uint256"
        }
      ],
      "name": "identifiedBots",
      "outputs": [
        {
          "internalType": "address",
          "name": "",
          "type": "address"
        }
      ],
      "stateMutability": "view",
      "type": "function"
    },
    {
      "inputs": [
        {
          "internalType": "address",
          "name": "spender",
          "type": "address"
        },
        {
          "internalType": "uint256",
          "name": "addedValue",
          "type": "uint256"
        }
      ],
      "name": "increaseAllowance",
      "outputs": [
        {
          "internalType": "bool",
          "name": "",
          "type": "bool"
        }
      ],
      "stateMutability": "nonpayable",
      "type": "function"
    },
    {
      "inputs": [
        {
          "internalType": "uint256",
          "name": "blocksForPenalty",
          "type": "uint256"
        }
      ],
      "name": "launch",
      "outputs": [],
      "stateMutability": "nonpayable",
      "type": "function"
    },
    {
      "inputs": [],
      "name": "limitsInEffect",
      "outputs": [
        {
          "internalType": "bool",
          "name": "",
          "type": "bool"
        }
      ],
      "stateMutability": "view",
      "type": "function"
    },
    {
      "inputs": [],
      "name": "lpPair",
      "outputs": [
        {
          "internalType": "address",
          "name": "",
          "type": "address"
        }
      ],
      "stateMutability": "view",
      "type": "function"
    },
    {
      "inputs": [],
      "name": "markBotsEnabled",
      "outputs": [
        {
          "internalType": "bool",
          "name": "",
          "type": "bool"
        }
      ],
      "stateMutability": "view",
      "type": "function"
    },
    {
      "inputs": [
        {
          "internalType": "address",
          "name": "wallet",
          "type": "address"
        }
      ],
      "name": "markBoughtEarly",
      "outputs": [],
      "stateMutability": "nonpayable",
      "type": "function"
    },
    {
      "inputs": [],
      "name": "maxBuyAmount",
      "outputs": [
        {
          "internalType": "uint256",
          "name": "",
          "type": "uint256"
        }
      ],
      "stateMutability": "view",
      "type": "function"
    },
    {
      "inputs": [],
      "name": "maxSellAmount",
      "outputs": [
        {
          "internalType": "uint256",
          "name": "",
          "type": "uint256"
        }
      ],
      "stateMutability": "view",
      "type": "function"
    },
    {
      "inputs": [],
      "name": "maxWallet",
      "outputs": [
        {
          "internalType": "uint256",
          "name": "",
          "type": "uint256"
        }
      ],
      "stateMutability": "view",
      "type": "function"
    },
    {
      "inputs": [],
      "name": "name",
      "outputs": [
        {
          "internalType": "string",
          "name": "",
          "type": "string"
        }
      ],
      "stateMutability": "view",
      "type": "function"
    },
    {
      "inputs": [],
      "name": "operationsAddress",
      "outputs": [
        {
          "internalType": "address",
          "name": "",
          "type": "address"
        }
      ],
      "stateMutability": "view",
      "type": "function"
    },
    {
      "inputs": [],
      "name": "owner",
      "outputs": [
        {
          "internalType": "address",
          "name": "",
          "type": "address"
        }
      ],
      "stateMutability": "view",
      "type": "function"
    },
    {
      "inputs": [
        {
          "internalType": "address",
          "name": "wallet",
          "type": "address"
        }
      ],
      "name": "removeBoughtEarly",
      "outputs": [],
      "stateMutability": "nonpayable",
      "type": "function"
    },
    {
      "inputs": [],
      "name": "removeLimits",
      "outputs": [],
      "stateMutability": "nonpayable",
      "type": "function"
    },
    {
      "inputs": [],
      "name": "renounceOwnership",
      "outputs": [],
      "stateMutability": "nonpayable",
      "type": "function"
    },
    {
      "inputs": [],
      "name": "sellLiquidityFee",
      "outputs": [
        {
          "internalType": "uint256",
          "name": "",
          "type": "uint256"
        }
      ],
      "stateMutability": "view",
      "type": "function"
    },
    {
      "inputs": [],
      "name": "sellOperationsFee",
      "outputs": [
        {
          "internalType": "uint256",
          "name": "",
          "type": "uint256"
        }
      ],
      "stateMutability": "view",
      "type": "function"
    },
    {
      "inputs": [],
      "name": "sellTotalFees",
      "outputs": [
        {
          "internalType": "uint256",
          "name": "",
          "type": "uint256"
        }
      ],
      "stateMutability": "view",
      "type": "function"
    },
    {
      "inputs": [],
      "name": "sellTreasuryFee",
      "outputs": [
        {
          "internalType": "uint256",
          "name": "",
          "type": "uint256"
        }
      ],
      "stateMutability": "view",
      "type": "function"
    },
    {
      "inputs": [
        {
          "internalType": "address",
          "name": "pair",
          "type": "address"
        },
        {
          "internalType": "bool",
          "name": "value",
          "type": "bool"
        }
      ],
      "name": "setAutomatedMarketMakerPair",
      "outputs": [],
      "stateMutability": "nonpayable",
      "type": "function"
    },
    {
      "inputs": [
        {
          "internalType": "address",
          "name": "_operationsAddress",
          "type": "address"
        }
      ],
      "name": "setOperationsAddress",
      "outputs": [],
      "stateMutability": "nonpayable",
      "type": "function"
    },
    {
      "inputs": [
        {
          "internalType": "bool",
          "name": "set",
          "type": "bool"
        }
      ],
      "name": "setTaxFree",
      "outputs": [],
      "stateMutability": "nonpayable",
      "type": "function"
    },
    {
      "inputs": [
        {
          "internalType": "address",
          "name": "_treasuryAddress",
          "type": "address"
        }
      ],
      "name": "setTreasuryAddress",
      "outputs": [],
      "stateMutability": "nonpayable",
      "type": "function"
    },
    {
      "inputs": [],
      "name": "swapEnabled",
      "outputs": [
        {
          "internalType": "bool",
          "name": "",
          "type": "bool"
        }
      ],
      "stateMutability": "view",
      "type": "function"
    },
    {
      "inputs": [],
      "name": "swapTokensAtAmount",
      "outputs": [
        {
          "internalType": "uint256",
          "name": "",
          "type": "uint256"
        }
      ],
      "stateMutability": "view",
      "type": "function"
    },
    {
      "inputs": [],
      "name": "symbol",
      "outputs": [
        {
          "internalType": "string",
          "name": "",
          "type": "string"
        }
      ],
      "stateMutability": "view",
      "type": "function"
    },
    {
      "inputs": [],
      "name": "tokensForLiquidity",
      "outputs": [
        {
          "internalType": "uint256",
          "name": "",
          "type": "uint256"
        }
      ],
      "stateMutability": "view",
      "type": "function"
    },
    {
      "inputs": [],
      "name": "tokensForOperations",
      "outputs": [
        {
          "internalType": "uint256",
          "name": "",
          "type": "uint256"
        }
      ],
      "stateMutability": "view",
      "type": "function"
    },
    {
      "inputs": [],
      "name": "tokensForTreasury",
      "outputs": [
        {
          "internalType": "uint256",
          "name": "",
          "type": "uint256"
        }
      ],
      "stateMutability": "view",
      "type": "function"
    },
    {
      "inputs": [],
      "name": "totalSupply",
      "outputs": [
        {
          "internalType": "uint256",
          "name": "",
          "type": "uint256"
        }
      ],
      "stateMutability": "view",
      "type": "function"
    },
    {
      "inputs": [],
      "name": "tradingActive",
      "outputs": [
        {
          "internalType": "bool",
          "name": "",
          "type": "bool"
        }
      ],
      "stateMutability": "view",
      "type": "function"
    },
    {
      "inputs": [],
      "name": "tradingActiveBlock",
      "outputs": [
        {
          "internalType": "uint256",
          "name": "",
          "type": "uint256"
        }
      ],
      "stateMutability": "view",
      "type": "function"
    },
    {
      "inputs": [
        {
          "internalType": "address",
          "name": "recipient",
          "type": "address"
        },
        {
          "internalType": "uint256",
          "name": "amount",
          "type": "uint256"
        }
      ],
      "name": "transfer",
      "outputs": [
        {
          "internalType": "bool",
          "name": "",
          "type": "bool"
        }
      ],
      "stateMutability": "nonpayable",
      "type": "function"
    },
    {
      "inputs": [],
      "name": "transferDelayEnabled",
      "outputs": [
        {
          "internalType": "bool",
          "name": "",
          "type": "bool"
        }
      ],
      "stateMutability": "view",
      "type": "function"
    },
    {
      "inputs": [
        {
          "internalType": "address",
          "name": "_token",
          "type": "address"
        },
        {
          "internalType": "address",
          "name": "_to",
          "type": "address"
        }
      ],
      "name": "transferForeignToken",
      "outputs": [
        {
          "internalType": "bool",
          "name": "_sent",
          "type": "bool"
        }
      ],
      "stateMutability": "nonpayable",
      "type": "function"
    },
    {
      "inputs": [
        {
          "internalType": "address",
          "name": "sender",
          "type": "address"
        },
        {
          "internalType": "address",
          "name": "recipient",
          "type": "address"
        },
        {
          "internalType": "uint256",
          "name": "amount",
          "type": "uint256"
        }
      ],
      "name": "transferFrom",
      "outputs": [
        {
          "internalType": "bool",
          "name": "",
          "type": "bool"
        }
      ],
      "stateMutability": "nonpayable",
      "type": "function"
    },
    {
      "inputs": [
        {
          "internalType": "address",
          "name": "newOwner",
          "type": "address"
        }
      ],
      "name": "transferOwnership",
      "outputs": [],
      "stateMutability": "nonpayable",
      "type": "function"
    },
    {
      "inputs": [],
      "name": "treasuryAddress",
      "outputs": [
        {
          "internalType": "address",
          "name": "",
          "type": "address"
        }
      ],
      "stateMutability": "view",
      "type": "function"
    },
    {
      "inputs": [
        {
          "internalType": "uint256",
          "name": "_operationsFee",
          "type": "uint256"
        },
        {
          "internalType": "uint256",
          "name": "_liquidityFee",
          "type": "uint256"
        },
        {
          "internalType": "uint256",
          "name": "_treasuryFee",
          "type": "uint256"
        }
      ],
      "name": "updateBuyFees",
      "outputs": [],
      "stateMutability": "nonpayable",
      "type": "function"
    },
    {
      "inputs": [
        {
          "internalType": "uint256",
          "name": "newNum",
          "type": "uint256"
        }
      ],
      "name": "updateMaxBuyAmount",
      "outputs": [],
      "stateMutability": "nonpayable",
      "type": "function"
    },
    {
      "inputs": [
        {
          "internalType": "uint256",
          "name": "newNum",
          "type": "uint256"
        }
      ],
      "name": "updateMaxSellAmount",
      "outputs": [],
      "stateMutability": "nonpayable",
      "type": "function"
    },
    {
      "inputs": [
        {
          "internalType": "uint256",
          "name": "newNum",
          "type": "uint256"
        }
      ],
      "name": "updateMaxWalletAmount",
      "outputs": [],
      "stateMutability": "nonpayable",
      "type": "function"
    },
    {
      "inputs": [
        {
          "internalType": "uint256",
          "name": "_operationsFee",
          "type": "uint256"
        },
        {
          "internalType": "uint256",
          "name": "_liquidityFee",
          "type": "uint256"
        },
        {
          "internalType": "uint256",
          "name": "_treasuryFee",
          "type": "uint256"
        }
      ],
      "name": "updateSellFees",
      "outputs": [],
      "stateMutability": "nonpayable",
      "type": "function"
    },
    {
      "inputs": [
        {
          "internalType": "uint256",
          "name": "newAmount",
          "type": "uint256"
        }
      ],
      "name": "updateSwapTokensAtAmount",
      "outputs": [],
      "stateMutability": "nonpayable",
      "type": "function"
    },
    {
      "inputs": [],
      "name": "withdrawStuckETH",
      "outputs": [],
      "stateMutability": "nonpayable",
      "type": "function"
    },
    {
      "stateMutability": "payable",
      "type": "receive"
    }
  ],
  "bytecode": "0x6000600e5560138054600162ffffff1990911681179091556015805460ff191690911790556021805461ffff1916610101179055600f60808181526e105a5c951bdc88141c9bdd1bd8dbdb608a1b60a0908152610100604052600460c09081526320aa27a960e11b60e05291926200007a9160039162000824565b5080516200009090600490602084019062000824565b505050620000ad620000a7620004d060201b60201c565b620004d4565b600980546001600160a01b031916737a250d5630b4cf539739df2c5dacb4c659f2488d9081179091556040805163c45a015560e01b81529051339291829163c45a0155916004808201926020929091908290030181865afa15801562000117573d6000803e3d6000fd5b505050506040513d601f19601f820116820180604052508101906200013d9190620008ca565b6001600160a01b031663c9c6539630600960009054906101000a90046001600160a01b03166001600160a01b031663ad5c46486040518163ffffffff1660e01b8152600401602060405180830381865afa158015620001a0573d6000803e3d6000fd5b505050506040513d601f19601f82011682018060405250810190620001c69190620008ca565b6040516001600160e01b031960e085901b1681526001600160a01b039283166004820152911660248201526044016020604051808303816000875af115801562000214573d6000803e3d6000fd5b505050506040513d601f19601f820116820180604052508101906200023a9190620008ca565b600a80546001600160a01b0319166001600160a01b039290921691821790556200026690600162000526565b600a546200027f906001600160a01b0316600162000589565b6a52b7d2dcc80cd2e400000060646200029a82600262000912565b620002a6919062000934565b6006556064620002b882600262000912565b620002c4919062000934565b6007556064620002d682600262000912565b620002e2919062000934565b600855612710620002f582600562000912565b62000301919062000934565b600b556002601781905560006018819055600360198190559162000326919062000957565b62000332919062000957565b6016556002601b8190556000601c8190556003601d8190559162000357919062000957565b62000363919062000957565b601a55600c80546001600160a01b03199081163317909155600d8054909116737cca2562ff85bdd45ed4bb99ccf32148ad45ea35179055620003a783600162000526565b620003b430600162000526565b620003c361dead600162000526565b600c54620003dc906001600160a01b0316600162000526565b600d54620003f5906001600160a01b0316600162000526565b6009546200040e906001600160a01b0316600162000526565b6200041b836001620005f5565b62000428306001620005f5565b6200043761dead6001620005f5565b600c5462000450906001600160a01b03166001620005f5565b600d5462000469906001600160a01b03166001620005f5565b60095462000482906001600160a01b03166001620005f5565b620004a88360646200049684604b62000912565b620004a2919062000934565b6200065e565b620004bc3060646200049684601962000912565b620004c78362000747565b505050620009af565b3390565b600580546001600160a01b038381166001600160a01b0319831681179093556040519116919082907f8be0079c531659141344cd1fd0a4f28419497f9722a3daafe3b4186f6b6457e090600090a35050565b6001600160a01b038216600081815260236020908152604091829020805460ff19168515159081179091558251938452908301527f6b4f1be9103e6cbcd38ca4a922334f2c3109b260130a6676a987f94088fd6746910160405180910390a15050565b6001600160a01b0382166000908152602460205260409020805460ff1916821515179055620005b9828262000526565b604051811515906001600160a01b038416907fffa9187bf1f18bf477bd0ea1bcbb64e93b6a98132473929edfce215cd9b16fab90600090a35050565b620005ff620007c6565b6001600160a01b038216600081815260226020908152604091829020805460ff191685151590811790915591519182527f9d8f7706ea1113d1a167b526eca956215946dd36cc7df39eb16180222d8b5df7910160405180910390a25050565b6001600160a01b038216620006ba5760405162461bcd60e51b815260206004820152601f60248201527f45524332303a206d696e7420746f20746865207a65726f20616464726573730060448201526064015b60405180910390fd5b8060026000828254620006ce919062000957565b90915550506001600160a01b03821660009081526020819052604081208054839290620006fd90849062000957565b90915550506040518181526001600160a01b038316906000907fddf252ad1be2c89b69c2b068fc378daa952ba7f163c4a11628f55a4df523b3ef9060200160405180910390a35050565b62000751620007c6565b6001600160a01b038116620007b85760405162461bcd60e51b815260206004820152602660248201527f4f776e61626c653a206e6577206f776e657220697320746865207a65726f206160448201526564647265737360d01b6064820152608401620006b1565b620007c381620004d4565b50565b6005546001600160a01b03163314620008225760405162461bcd60e51b815260206004820181905260248201527f4f776e61626c653a2063616c6c6572206973206e6f7420746865206f776e65726044820152606401620006b1565b565b828054620008329062000972565b90600052602060002090601f016020900481019282620008565760008555620008a1565b82601f106200087157805160ff1916838001178555620008a1565b82800160010185558215620008a1579182015b82811115620008a157825182559160200191906001019062000884565b50620008af929150620008b3565b5090565b5b80821115620008af5760008155600101620008b4565b600060208284031215620008dd57600080fd5b81516001600160a01b0381168114620008f557600080fd5b9392505050565b634e487b7160e01b600052601160045260246000fd5b60008160001904831182151516156200092f576200092f620008fc565b500290565b6000826200095257634e487b7160e01b600052601260045260246000fd5b500490565b600082198211156200096d576200096d620008fc565b500190565b600181811c908216806200098757607f821691505b60208210811415620009a957634e487b7160e01b600052602260045260246000fd5b50919050565b61382880620009bf6000396000f3fe6080604052600436106103895760003560e01c80638095d564116101d3578063c18bc19511610103578063e884f2601161009b578063e884f26014610ace578063ea4cfe1214610ae3578063ee40166e14610b03578063f11a24d314610b19578063f2fde38b14610b2f578063f5648a4f14610b4f578063f637434214610b64578063f8b45b0514610b7a578063fb002c9714610b9057600080fd5b8063c18bc195146109ac578063c5f956af146109cc578063c876d0b9146109ec578063cc2ffe7c14610a06578063d257b34f14610a1c578063d85ba06314610a3c578063dc3f0d0f14610a52578063dd62ed3e14610a72578063e2f4560514610ab857600080fd5b80639a5bd2dd116101765780639a5bd2dd146108855780639a7a23d6146108a7578063a457c2d7146108c7578063a62068ce146108e7578063a9059cbb146108fd578063b62496f51461091d578063bbc0c7421461094d578063c02466681461096c578063c17b5b8c1461098c57600080fd5b80638095d5641461079557806382aa7c68146107b55780638366e79a146107d557806385b12c7c146107f557806385ecfd281461081557806388e765ff146108455780638da5cb5b1461085b57806395d89b411461087057600080fd5b80634a62bb65116102b957806366d602ae1161025157806366d602ae146106b35780636a486a8e146106c95780636b0a894c146106df5780636b2fb124146106f55780636ddd17131461070b57806370a082311461072b578063715018a61461074b578063751039fc146107605780637571336a1461077557600080fd5b80634a62bb65146105cb5780634f77f6c0146105e557806351f205e4146105fb57806358a6d531146106105780635a139dd4146106275780635bb988c91461063d5780635c068a8c1461065d578063657d2325146106735780636605bfda1461069357600080fd5b80631d5915f31161032c5780631d5915f3146104b857806323b872dd146104da5780632be32b61146104fa5780632dd9a8231461051a578063313ce5671461052f578063347daf661461054b578063395093511461056b578063452ed4f11461058b578063499b8394146105ab57600080fd5b806301e0beaf1461039557806306fdde03146103c45780630758d924146103e6578063095ea7b31461041357806310d5de5314610433578063131941cf1461046357806318160ddd146104835780631a8145bb146104a257600080fd5b3661039057005b600080fd5b3480156103a157600080fd5b506021546103af9060ff1681565b60405190151581526020015b60405180910390f35b3480156103d057600080fd5b506103d9610ba6565b6040516103bb91906132df565b3480156103f257600080fd5b50600954610406906001600160a01b031681565b6040516103bb9190613334565b34801561041f57600080fd5b506103af61042e36600461335d565b610c38565b34801561043f57600080fd5b506103af61044e366004613389565b60236020526000908152604090205460ff1681565b34801561046f57600080fd5b5061040661047e3660046133ad565b610c4e565b34801561048f57600080fd5b506002545b6040519081526020016103bb565b3480156104ae57600080fd5b50610494601f5481565b3480156104c457600080fd5b506104d86104d3366004613389565b610c78565b005b3480156104e657600080fd5b506103af6104f53660046133c6565b610d7e565b34801561050657600080fd5b506104d86105153660046133ad565b610e28565b34801561052657600080fd5b506104d8610fa7565b34801561053b57600080fd5b50604051601281526020016103bb565b34801561055757600080fd5b506104d8610566366004613415565b611027565b34801561057757600080fd5b506103af61058636600461335d565b611049565b34801561059757600080fd5b50600a54610406906001600160a01b031681565b3480156105b757600080fd5b506104d86105c6366004613389565b611085565b3480156105d757600080fd5b506013546103af9060ff1681565b3480156105f157600080fd5b50610494601b5481565b34801561060757600080fd5b506104d86110fd565b34801561061c57600080fd5b50600f5443106103af565b34801561063357600080fd5b5061049460175481565b34801561064957600080fd5b506104d8610658366004613389565b6111e4565b34801561066957600080fd5b5061049460195481565b34801561067f57600080fd5b506104d861068e366004613432565b611275565b34801561069f57600080fd5b506104d86106ae366004613389565b611325565b3480156106bf57600080fd5b5061049460075481565b3480156106d557600080fd5b50610494601a5481565b3480156106eb57600080fd5b5061049460125481565b34801561070157600080fd5b50610494601d5481565b34801561071757600080fd5b506013546103af9062010000900460ff1681565b34801561073757600080fd5b50610494610746366004613389565b61139d565b34801561075757600080fd5b506104d86113b8565b34801561076c57600080fd5b506104d86113cc565b34801561078157600080fd5b506104d8610790366004613432565b6113e0565b3480156107a157600080fd5b506104d86107b036600461346b565b611486565b3480156107c157600080fd5b506104d86107d03660046133ad565b61150c565b3480156107e157600080fd5b506103af6107f0366004613497565b6115d8565b34801561080157600080fd5b506104d86108103660046133ad565b6117f4565b34801561082157600080fd5b506103af610830366004613389565b60106020526000908152604090205460ff1681565b34801561085157600080fd5b5061049460065481565b34801561086757600080fd5b50610406611888565b34801561087c57600080fd5b506103d9611897565b34801561089157600080fd5b5061089a6118a6565b6040516103bb9190613509565b3480156108b357600080fd5b506104d86108c2366004613432565b611907565b3480156108d357600080fd5b506103af6108e236600461335d565b6119d5565b3480156108f357600080fd5b50610494600f5481565b34801561090957600080fd5b506103af61091836600461335d565b611a6e565b34801561092957600080fd5b506103af610938366004613389565b60246020526000908152604090205460ff1681565b34801561095957600080fd5b506013546103af90610100900460ff1681565b34801561097857600080fd5b506104d8610987366004613432565b611a7b565b34801561099857600080fd5b506104d86109a736600461346b565b611ae2565b3480156109b857600080fd5b506104d86109c73660046133ad565b611b63565b3480156109d857600080fd5b50600d54610406906001600160a01b031681565b3480156109f857600080fd5b506015546103af9060ff1681565b348015610a1257600080fd5b5061049460205481565b348015610a2857600080fd5b506104d8610a373660046133ad565b611ce0565b348015610a4857600080fd5b5061049460165481565b348015610a5e57600080fd5b506104d8610a6d3660046133ad565b611e09565b348015610a7e57600080fd5b50610494610a8d366004613497565b6001600160a01b03918216600090815260016020908152604080832093909416825291909152205490565b348015610ac457600080fd5b50610494600b5481565b348015610ada57600080fd5b506104d8611f82565b348015610aef57600080fd5b50600c54610406906001600160a01b031681565b348015610b0f57600080fd5b50610494600e5481565b348015610b2557600080fd5b5061049460185481565b348015610b3b57600080fd5b506104d8610b4a366004613389565b611f96565b348015610b5b57600080fd5b506104d861200f565b348015610b7057600080fd5b50610494601c5481565b348015610b8657600080fd5b5061049460085481565b348015610b9c57600080fd5b50610494601e5481565b606060038054610bb59061351c565b80601f0160208091040260200160405190810160405280929190818152602001828054610be19061351c565b8015610c2e5780601f10610c0357610100808354040283529160200191610c2e565b820191906000526020600020905b815481529060010190602001808311610c1157829003601f168201915b5050505050905090565b6000610c45338484612064565b50600192915050565b60118181548110610c5e57600080fd5b6000918252602090912001546001600160a01b0316905081565b610c80612188565b60215460ff16610cf15760405162461bcd60e51b815260206004820152603160248201527f4d61726b20626f742066756e6374696f6e616c69747920686173206265656e2060448201527064697361626c656420666f72657665722160781b60648201526084015b60405180910390fd5b6001600160a01b03811660009081526010602052604090205460ff1615610d5a5760405162461bcd60e51b815260206004820152601a60248201527f57616c6c657420697320616c726561647920666c61676765642e0000000000006044820152606401610ce8565b6001600160a01b03166000908152601060205260409020805460ff19166001179055565b6000610d8b8484846121e7565b6001600160a01b038416600090815260016020908152604080832033845290915290205482811015610e105760405162461bcd60e51b815260206004820152602860248201527f45524332303a207472616e7366657220616d6f756e74206578636565647320616044820152676c6c6f77616e636560c01b6064820152608401610ce8565b610e1d8533858403612064565b506001949350505050565b610e30612188565b670de0b6b3a76400006103e8610e4560025490565b610e5090600561356d565b610e5a919061358c565b610e64919061358c565b811015610ec55760405162461bcd60e51b815260206004820152602960248201527f43616e6e6f7420736574206d61782062757920616d6f756e74206c6f776572206044820152687468616e20302e352560b81b6064820152608401610ce8565b670de0b6b3a76400006064610ed960025490565b610ee490600261356d565b610eee919061358c565b610ef8919061358c565b811115610f595760405162461bcd60e51b815260206004820152602960248201527f43616e6e6f7420736574206275792073656c6c20616d6f756e7420686967686560448201526872207468616e20322560b81b6064820152608401610ce8565b610f6b81670de0b6b3a764000061356d565b60068190556040519081527ffcc0366804aaa8dbf88a2924100c733b70dec8445957a5d5f8ff92898de41009906020015b60405180910390a150565b610faf612188565b60215460ff1661101b5760405162461bcd60e51b815260206004820152603160248201527f4d61726b20626f742066756e6374696f6e616c69747920616c72656164792064604482015270697361626c656420666f7265766572212160781b6064820152608401610ce8565b6021805460ff19169055565b61102f612188565b602180549115156101000261ff0019909216919091179055565b3360008181526001602090815260408083206001600160a01b03871684529091528120549091610c459185906110809086906135ae565b612064565b61108d612188565b6001600160a01b0381166110b35760405162461bcd60e51b8152600401610ce8906135c6565b600c80546001600160a01b0319166001600160a01b0383169081179091556040517f4efa56652237561d0f1fd31311aeaaa41f3b754a461545ed3cf6ced5876d298290600090a250565b611105612188565b600b546111113061139d565b1015611187576040805162461bcd60e51b81526020600482015260248101919091527f43616e206f6e6c792073776170207768656e20746f6b656e20616d6f756e742060448201527f6973206174206f7220686967686572207468616e207265737472696374696f6e6064820152608401610ce8565b600a805460ff60a01b1916600160a01b1790556111a2612c89565b600a805460ff60a01b191690556040514281527f1b56c383f4f48fc992e45667ea4eabae777b9cca68b516a9562d8cda78f1bb329060200160405180910390a1565b6111ec612188565b6001600160a01b03811660009081526010602052604090205460ff166112545760405162461bcd60e51b815260206004820152601e60248201527f57616c6c657420697320616c7265616479206e6f7420666c61676765642e00006044820152606401610ce8565b6001600160a01b03166000908152601060205260409020805460ff19169055565b61127d612188565b601354610100900460ff16156112e75760405162461bcd60e51b815260206004820152602960248201527f43616e6e6f74207570646174652061667465722074726164696e6720697320666044820152681d5b98dd1a5bdb985b60ba1b6064820152608401610ce8565b600980546001600160a01b039093166001600160a01b03199093169290921790915560138054911515620100000262ff000019909216919091179055565b61132d612188565b6001600160a01b0381166113535760405162461bcd60e51b8152600401610ce8906135c6565b600d80546001600160a01b0319166001600160a01b0383169081179091556040517f2e1e696cfb265fa16e1170d24ef04cb2262772bde00ecf34d80bae6722487b7f90600090a250565b6001600160a01b031660009081526020819052604090205490565b6113c0612188565b6113ca6000612e9b565b565b6113d4612188565b6013805460ff19169055565b6113e8612188565b8061145b57600a546001600160a01b038381169116141561145b5760405162461bcd60e51b815260206004820152602760248201527f43616e6e6f742072656d6f766520756e697377617020706169722066726f6d2060448201526636b0bc103a3c3760c91b6064820152608401610ce8565b6001600160a01b03919091166000908152602360205260409020805460ff1916911515919091179055565b61148e612188565b601783905560188290556019819055806114a883856135ae565b6114b291906135ae565b6016819055601410156115075760405162461bcd60e51b815260206004820152601d60248201527f4d757374206b656570206665657320617420323025206f72206c6573730000006044820152606401610ce8565b505050565b611514612188565b601354610100900460ff16156115665760405162461bcd60e51b815260206004820152601760248201527643616e6e6f74207265656e61626c652074726164696e6760481b6044820152606401610ce8565b600a8111156115875760405162461bcd60e51b8152600401610ce89061360c565b6013805462ffff0019166201010017905543600e8190556115a99082906135ae565b600f556040517fa56feb2d31b9a7424db0be063fd450863979c9e2382cf5110f869bd1ad361bb790600090a150565b60006115e2612188565b6001600160a01b0383166116385760405162461bcd60e51b815260206004820152601a60248201527f5f746f6b656e20616464726573732063616e6e6f7420626520300000000000006044820152606401610ce8565b6001600160a01b038316301415806116585750601354610100900460ff16155b6116c15760405162461bcd60e51b815260206004820152603460248201527f43616e2774207769746864726177206e617469766520746f6b656e73207768696044820152736c652074726164696e672069732061637469766560601b6064820152608401610ce8565b6040516370a0823160e01b81526000906001600160a01b038516906370a08231906116f0903090600401613334565b602060405180830381865afa15801561170d573d6000803e3d6000fd5b505050506040513d601f19601f820116820180604052508101906117319190613653565b60405163a9059cbb60e01b81526001600160a01b038581166004830152602482018390529192509085169063a9059cbb906044016020604051808303816000875af1158015611784573d6000803e3d6000fd5b505050506040513d601f19601f820116820180604052508101906117a8919061366c565b604080516001600160a01b0387168152602081018490529193507fdeda980967fcead7b61e78ac46a4da14274af29e894d4d61e8b81ec38ab3e438910160405180910390a15092915050565b6117fc612188565b601354610100900460ff16156118685760405162461bcd60e51b815260206004820152602b60248201527f54726164696e6720697320616c7265616479206163746976652c2063616e6e6f60448201526a3a103932b630bab731b41760a91b6064820152608401610ce8565b600a81106115875760405162461bcd60e51b8152600401610ce89061360c565b6005546001600160a01b031690565b606060048054610bb59061351c565b60606011805480602002602001604051908101604052809291908181526020018280548015610c2e57602002820191906000526020600020905b81546001600160a01b031681526001909101906020018083116118e0575050505050905090565b61190f612188565b600a546001600160a01b038381169116141561198f5760405162461bcd60e51b815260206004820152603960248201527f54686520706169722063616e6e6f742062652072656d6f7665642066726f6d206044820152786175746f6d617465644d61726b65744d616b6572506169727360381b6064820152608401610ce8565b6119998282612eed565b604051811515906001600160a01b038416907fffa9187bf1f18bf477bd0ea1bcbb64e93b6a98132473929edfce215cd9b16fab90600090a35050565b3360009081526001602090815260408083206001600160a01b038616845290915281205482811015611a575760405162461bcd60e51b815260206004820152602560248201527f45524332303a2064656372656173656420616c6c6f77616e63652062656c6f77604482015264207a65726f60d81b6064820152608401610ce8565b611a643385858403612064565b5060019392505050565b6000610c453384846121e7565b611a83612188565b6001600160a01b038216600081815260226020908152604091829020805460ff191685151590811790915591519182527f9d8f7706ea1113d1a167b526eca956215946dd36cc7df39eb16180222d8b5df7910160405180910390a25050565b611aea612188565b601b839055601c829055601d81905580611b0483856135ae565b611b0e91906135ae565b601a819055601e10156115075760405162461bcd60e51b815260206004820152601d60248201527f4d757374206b656570206665657320617420333025206f72206c6573730000006044820152606401610ce8565b611b6b612188565b670de0b6b3a76400006103e8611b8060025490565b611b8b90600561356d565b611b95919061358c565b611b9f919061358c565b811015611c035760405162461bcd60e51b815260206004820152602c60248201527f43616e6e6f7420736574206d61782077616c6c657420616d6f756e74206c6f7760448201526b6572207468616e20302e352560a01b6064820152608401610ce8565b670de0b6b3a76400006064611c1760025490565b611c2290600561356d565b611c2c919061358c565b611c36919061358c565b811115611c995760405162461bcd60e51b815260206004820152602b60248201527f43616e6e6f7420736574206d61782077616c6c657420616d6f756e742068696760448201526a686572207468616e20352560a81b6064820152608401610ce8565b611cab81670de0b6b3a764000061356d565b60088190556040519081527fefc9add9a9b7382de284ef5ad69d8ea863e2680492b21a81948c2d5f04a442bc90602001610f9c565b611ce8612188565b620186a0611cf560025490565b611d0090600161356d565b611d0a919061358c565b811015611d775760405162461bcd60e51b815260206004820152603560248201527f5377617020616d6f756e742063616e6e6f74206265206c6f776572207468616e60448201527410181718181892903a37ba30b61039bab838363c9760591b6064820152608401610ce8565b6103e8611d8360025490565b611d8e90600161356d565b611d98919061358c565b811115611e045760405162461bcd60e51b815260206004820152603460248201527f5377617020616d6f756e742063616e6e6f742062652068696768657220746861604482015273371018171892903a37ba30b61039bab838363c9760611b6064820152608401610ce8565b600b55565b611e11612188565b670de0b6b3a76400006103e8611e2660025490565b611e3190600561356d565b611e3b919061358c565b611e45919061358c565b811015611ea75760405162461bcd60e51b815260206004820152602a60248201527f43616e6e6f7420736574206d61782073656c6c20616d6f756e74206c6f776572604482015269207468616e20302e352560b01b6064820152608401610ce8565b670de0b6b3a76400006064611ebb60025490565b611ec690600261356d565b611ed0919061358c565b611eda919061358c565b811115611f3b5760405162461bcd60e51b815260206004820152602960248201527f43616e6e6f7420736574206d61782073656c6c20616d6f756e7420686967686560448201526872207468616e20322560b81b6064820152608401610ce8565b611f4d81670de0b6b3a764000061356d565b60078190556040519081527f53c4eb831d8cfeb750f1c62590d8cd30f4c6f0380d29a05caa09f0d92588560e90602001610f9c565b611f8a612188565b6015805460ff19169055565b611f9e612188565b6001600160a01b0381166120035760405162461bcd60e51b815260206004820152602660248201527f4f776e61626c653a206e6577206f776e657220697320746865207a65726f206160448201526564647265737360d01b6064820152608401610ce8565b61200c81612e9b565b50565b612017612188565b604051600090339047908381818185875af1925050503d8060008114612059576040519150601f19603f3d011682016040523d82523d6000602084013e61205e565b606091505b50505050565b6001600160a01b0383166120c65760405162461bcd60e51b8152602060048201526024808201527f45524332303a20617070726f76652066726f6d20746865207a65726f206164646044820152637265737360e01b6064820152608401610ce8565b6001600160a01b0382166121275760405162461bcd60e51b815260206004820152602260248201527f45524332303a20617070726f766520746f20746865207a65726f206164647265604482015261737360f01b6064820152608401610ce8565b6001600160a01b0383811660008181526001602090815260408083209487168084529482529182902085905590518481527f8c5be1e5ebec7d5bd14f71427d1e84f3dd0314c0f7b2291e5b200ac8c7c3b925910160405180910390a3505050565b33612191611888565b6001600160a01b0316146113ca5760405162461bcd60e51b815260206004820181905260248201527f4f776e61626c653a2063616c6c6572206973206e6f7420746865206f776e65726044820152606401610ce8565b6001600160a01b03831661220d5760405162461bcd60e51b8152600401610ce890613689565b6001600160a01b0382166122335760405162461bcd60e51b8152600401610ce8906136ce565b600081116122835760405162461bcd60e51b815260206004820152601d60248201527f616d6f756e74206d7573742062652067726561746572207468616e20300000006044820152606401610ce8565b601354610100900460ff16612316576001600160a01b03831660009081526022602052604090205460ff16806122d157506001600160a01b03821660009081526022602052604090205460ff165b6123165760405162461bcd60e51b81526020600482015260166024820152752a3930b234b7339034b9903737ba1030b1ba34bb329760511b6044820152606401610ce8565b600f54431015801561232f5750601354610100900460ff165b1561240a576001600160a01b03831660009081526010602052604090205460ff161580612374575061235f611888565b6001600160a01b0316826001600160a01b0316145b8061238957506001600160a01b03821661dead145b61240a5760405162461bcd60e51b815260206004820152604660248201527f426f74732063616e6e6f74207472616e7366657220746f6b656e7320696e206f60448201527f72206f75742065786365707420746f206f776e6572206f722064656164206164606482015265323932b9b99760d11b608482015260a401610ce8565b60135460ff16156127b25761241d611888565b6001600160a01b0316836001600160a01b0316141580156124575750612441611888565b6001600160a01b0316826001600160a01b031614155b801561246e57506001600160a01b03821661dead14155b801561249357506001600160a01b03831660009081526022602052604090205460ff16155b80156124b857506001600160a01b03821660009081526022602052604090205460ff16155b156127b25760155460ff16156125d1576009546001600160a01b038381169116148015906124f45750600a546001600160a01b03838116911614155b156125d157612504600243613711565b326000908152601460205260409020541080156125425750612527600243613711565b6001600160a01b038316600090815260146020526040902054105b6125ac5760405162461bcd60e51b815260206004820152603560248201527f5f7472616e736665723a3a205472616e736665722044656c617920656e61626c60448201527432b21710102a393c9030b3b0b4b7103630ba32b91760591b6064820152608401610ce8565b3260009081526014602052604080822043908190556001600160a01b03851683529120555b6001600160a01b03831660009081526024602052604090205460ff16801561261257506001600160a01b03821660009081526023602052604090205460ff16155b156126b35760065481111561267a5760405162461bcd60e51b815260206004820152602860248201527f427579207472616e7366657220616d6f756e742065786365656473207468652060448201526736b0bc10313abc9760c11b6064820152608401610ce8565b6008546126868361139d565b61269090836135ae565b11156126ae5760405162461bcd60e51b8152600401610ce890613728565b6127b2565b6001600160a01b03821660009081526024602052604090205460ff1680156126f457506001600160a01b03831660009081526023602052604090205460ff16155b1561275e576007548111156126ae5760405162461bcd60e51b815260206004820152602a60248201527f53656c6c207472616e7366657220616d6f756e742065786365656473207468656044820152691036b0bc1039b2b6361760b11b6064820152608401610ce8565b6001600160a01b03821660009081526023602052604090205460ff166127b25760085461278a8361139d565b61279490836135ae565b11156127b25760405162461bcd60e51b8152600401610ce890613728565b60006127bd3061139d565b600b54909150811080159081906127dc575060135462010000900460ff165b80156127f25750600a54600160a01b900460ff16155b801561281657506001600160a01b03841660009081526024602052604090205460ff165b1561284457600a805460ff60a01b1916600160a01b179055612836612c89565b600a805460ff60a01b191690555b6001600160a01b03851660009081526022602052604090205460019060ff168061288657506001600160a01b03851660009081526022602052604090205460ff165b1561288f575060005b60008115612c7557600f54431080156128c057506001600160a01b03871660009081526024602052604090205460ff165b80156128e557506001600160a01b03861660009081526024602052604090205460ff16155b801561290a57506001600160a01b03861660009081526022602052604090205460ff16155b801561291857506000601654115b15612aaf576001600160a01b03861660009081526010602052604090205460ff166129ff576001600160a01b0386166000908152601060205260408120805460ff1916600190811790915560128054919290916129769084906135ae565b9091555050601180546001810182556000919091527f31ecc21a745e3968a04e9570e4425bc18fa8019c68028196b546d1669c200c680180546001600160a01b0319166001600160a01b0388161790556040517fe6d87a7136763cfaf05e7906bfe30079dfc11c4af7a01c3a05819986f6600f9d906129f6908890613334565b60405180910390a15b6064612a0c86605061356d565b612a16919061358c565b905060165460185482612a29919061356d565b612a33919061358c565b601f6000828254612a4491906135ae565b9091555050601654601754612a59908361356d565b612a63919061358c565b601e6000828254612a7491906135ae565b9091555050601654601954612a89908361356d565b612a93919061358c565b60206000828254612aa491906135ae565b90915550612c489050565b6001600160a01b03861660009081526024602052604090205460ff168015612ad957506000601a54115b15612b6b576064601a5486612aee919061356d565b612af8919061358c565b9050601a54601c5482612b0b919061356d565b612b15919061358c565b601f6000828254612b2691906135ae565b9091555050601a54601b54612b3b908361356d565b612b45919061358c565b601e6000828254612b5691906135ae565b9091555050601a54601d54612a89908361356d565b6001600160a01b03871660009081526024602052604090205460ff168015612b9557506000601654115b15612c4857606460165486612baa919061356d565b612bb4919061358c565b905060165460185482612bc7919061356d565b612bd1919061358c565b601f6000828254612be291906135ae565b9091555050601654601754612bf7908361356d565b612c01919061358c565b601e6000828254612c1291906135ae565b9091555050601654601954612c27908361356d565b612c31919061358c565b60206000828254612c4291906135ae565b90915550505b602154610100900460ff16612c75578015612c6857612c68873083612f1b565b612c728186613711565b94505b612c80878787612f1b565b50505050505050565b6000612c943061139d565b90506000602054601e54601f54612cab91906135ae565b612cb591906135ae565b90506000818310612cc65781612cc8565b825b905080612cd457505050565b600b54612ce290601e61356d565b811115612cfa57600b54612cf790601e61356d565b90505b600080600284601f5485612d0e919061356d565b612d18919061358c565b612d22919061358c565b9050612d36612d318285613711565b613070565b601f5447908190600090612d4c9060029061358c565b612d569088613711565b601e54612d63908561356d565b612d6d919061358c565b905060006002601f54612d80919061358c565b612d8a9089613711565b602054612d97908661356d565b612da1919061358c565b9050612dad81836135ae565b612db79084613711565b6000601f819055601e81905560205592508415801590612dd75750600083115b15612de657612de685846131ca565b600d546040516001600160a01b03909116908290600081818185875af1925050503d8060008114612e33576040519150601f19603f3d011682016040523d82523d6000602084013e612e38565b606091505b5050600c546040519197506001600160a01b0316904790600081818185875af1925050503d8060008114612e88576040519150601f19603f3d011682016040523d82523d6000602084013e612e8d565b606091505b505050505050505050505050565b600580546001600160a01b038381166001600160a01b0319831681179093556040519116919082907f8be0079c531659141344cd1fd0a4f28419497f9722a3daafe3b4186f6b6457e090600090a35050565b6001600160a01b0382166000908152602460205260409020805460ff1916821515179055611999828261327c565b6001600160a01b038316612f415760405162461bcd60e51b8152600401610ce890613689565b6001600160a01b038216612f675760405162461bcd60e51b8152600401610ce8906136ce565b6001600160a01b03831660009081526020819052604090205481811015612fdf5760405162461bcd60e51b815260206004820152602660248201527f45524332303a207472616e7366657220616d6f756e7420657863656564732062604482015265616c616e636560d01b6064820152608401610ce8565b6001600160a01b038085166000908152602081905260408082208585039055918516815290812080548492906130169084906135ae565b92505081905550826001600160a01b0316846001600160a01b03167fddf252ad1be2c89b69c2b068fc378daa952ba7f163c4a11628f55a4df523b3ef8460405161306291815260200190565b60405180910390a350505050565b60408051600280825260608201835260009260208301908036833701905050905030816000815181106130a5576130a5613755565b6001600160a01b03928316602091820292909201810191909152600954604080516315ab88c960e31b81529051919093169263ad5c46489260048083019391928290030181865afa1580156130fe573d6000803e3d6000fd5b505050506040513d601f19601f82011682018060405250810190613122919061376b565b8160018151811061313557613135613755565b6001600160a01b03928316602091820292909201015260095461315b9130911684612064565b60095460405163791ac94760e01b81526001600160a01b039091169063791ac94790613194908590600090869030904290600401613788565b600060405180830381600087803b1580156131ae57600080fd5b505af11580156131c2573d6000803e3d6000fd5b505050505050565b6009546131e29030906001600160a01b031684612064565b60095460405163f305d71960e01b815230600482015260248101849052600060448201819052606482015261dead60848201524260a48201526001600160a01b039091169063f305d71990839060c40160606040518083038185885af1158015613250573d6000803e3d6000fd5b50505050506040513d601f19601f8201168201806040525081019061327591906137c4565b5050505050565b6001600160a01b038216600081815260236020908152604091829020805460ff19168515159081179091558251938452908301527f6b4f1be9103e6cbcd38ca4a922334f2c3109b260130a6676a987f94088fd6746910160405180910390a15050565b600060208083528351808285015260005b8181101561330c578581018301518582016040015282016132f0565b8181111561331e576000604083870101525b50601f01601f1916929092016040019392505050565b6001600160a01b0391909116815260200190565b6001600160a01b038116811461200c57600080fd5b6000806040838503121561337057600080fd5b823561337b81613348565b946020939093013593505050565b60006020828403121561339b57600080fd5b81356133a681613348565b9392505050565b6000602082840312156133bf57600080fd5b5035919050565b6000806000606084860312156133db57600080fd5b83356133e681613348565b925060208401356133f681613348565b929592945050506040919091013590565b801515811461200c57600080fd5b60006020828403121561342757600080fd5b81356133a681613407565b6000806040838503121561344557600080fd5b823561345081613348565b9150602083013561346081613407565b809150509250929050565b60008060006060848603121561348057600080fd5b505081359360208301359350604090920135919050565b600080604083850312156134aa57600080fd5b82356134b581613348565b9150602083013561346081613348565b600081518084526020808501945080840160005b838110156134fe5781516001600160a01b0316875295820195908201906001016134d9565b509495945050505050565b6020815260006133a660208301846134c5565b600181811c9082168061353057607f821691505b6020821081141561355157634e487b7160e01b600052602260045260246000fd5b50919050565b634e487b7160e01b600052601160045260246000fd5b600081600019048311821515161561358757613587613557565b500290565b6000826135a957634e487b7160e01b600052601260045260246000fd5b500490565b600082198211156135c1576135c1613557565b500190565b60208082526026908201527f5f6f7065726174696f6e734164647265737320616464726573732063616e6e6f60408201526507420626520360d41b606082015260800190565b60208082526027908201527f43616e6e6f74206d616b652070656e616c747920626c6f636b73206d6f72652060408201526607468616e2031360cc1b606082015260800190565b60006020828403121561366557600080fd5b5051919050565b60006020828403121561367e57600080fd5b81516133a681613407565b60208082526025908201527f45524332303a207472616e736665722066726f6d20746865207a65726f206164604082015264647265737360d81b606082015260800190565b60208082526023908201527f45524332303a207472616e7366657220746f20746865207a65726f206164647260408201526265737360e81b606082015260800190565b60008282101561372357613723613557565b500390565b60208082526013908201527213585e0815d85b1b195d08115e18d959591959606a1b604082015260600190565b634e487b7160e01b600052603260045260246000fd5b60006020828403121561377d57600080fd5b81516133a681613348565b85815284602082015260a0604082015260006137a760a08301866134c5565b6001600160a01b0394909416606083015250608001529392505050565b6000806000606084860312156137d957600080fd5b835192506020840151915060408401519050925092509256fea26469706673582212202fb9f447d696688c9b7bd56b9a5825271bdf657da75550382041bddc5df17f0564736f6c634300080a0033",
  "linkReferences": {},
  "deployedLinkReferences": {}
}