{
  "_format": "hh-sol-artifact-1",
  "contractName": "Facility",
  "sourceName": "contracts/Facility.sol",
  "abi": [
    {
      "inputs": [],
      "stateMutability": "nonpayable",
      "type": "constructor"
    },
    {
      "anonymous": false,
      "inputs": [
        {
          "indexed": false,
          "internalType": "address",
          "name": "previousAdmin",
          "type": "address"
        },
        {
          "indexed": false,
          "internalType": "address",
          "name": "newAdmin",
          "type": "address"
        }
      ],
      "name": "AdminChanged",
      "type": "event"
    },
    {
      "anonymous": false,
      "inputs": [
        {
          "indexed": true,
          "internalType": "address",
          "name": "_account",
          "type": "address"
        },
        {
          "indexed": false,
          "internalType": "uint256",
          "name": "_value",
          "type": "uint256"
        }
      ],
      "name": "AllocationClaimed",
      "type": "event"
    },
    {
      "anonymous": false,
      "inputs": [
        {
          "indexed": true,
          "internalType": "address",
          "name": "_account",
          "type": "address"
        },
        {
          "indexed": false,
          "internalType": "uint256",
          "name": "_value",
          "type": "uint256"
        }
      ],
      "name": "AllocationUpdated",
      "type": "event"
    },
    {
      "anonymous": false,
      "inputs": [
        {
          "indexed": true,
          "internalType": "address",
          "name": "beacon",
          "type": "address"
        }
      ],
      "name": "BeaconUpgraded",
      "type": "event"
    },
    {
      "anonymous": false,
      "inputs": [
        {
          "indexed": true,
          "internalType": "address",
          "name": "sender",
          "type": "address"
        },
        {
          "indexed": false,
          "internalType": "uint256",
          "name": "amount",
          "type": "uint256"
        }
      ],
      "name": "GasBudgetUpdated",
      "type": "event"
    },
    {
      "anonymous": false,
      "inputs": [
        {
          "indexed": false,
          "internalType": "uint8",
          "name": "version",
          "type": "uint8"
        }
      ],
      "name": "Initialized",
      "type": "event"
    },
    {
      "anonymous": false,
      "inputs": [
        {
          "indexed": false,
          "internalType": "address",
          "name": "account",
          "type": "address"
        }
      ],
      "name": "Paused",
      "type": "event"
    },
    {
      "anonymous": false,
      "inputs": [
        {
          "indexed": true,
          "internalType": "address",
          "name": "_account",
          "type": "address"
        }
      ],
      "name": "RequestingUpdate",
      "type": "event"
    },
    {
      "anonymous": false,
      "inputs": [
        {
          "indexed": true,
          "internalType": "bytes32",
          "name": "role",
          "type": "bytes32"
        },
        {
          "indexed": true,
          "internalType": "bytes32",
          "name": "previousAdminRole",
          "type": "bytes32"
        },
        {
          "indexed": true,
          "internalType": "bytes32",
          "name": "newAdminRole",
          "type": "bytes32"
        }
      ],
      "name": "RoleAdminChanged",
      "type": "event"
    },
    {
      "anonymous": false,
      "inputs": [
        {
          "indexed": true,
          "internalType": "bytes32",
          "name": "role",
          "type": "bytes32"
        },
        {
          "indexed": true,
          "internalType": "address",
          "name": "account",
          "type": "address"
        },
        {
          "indexed": true,
          "internalType": "address",
          "name": "sender",
          "type": "address"
        }
      ],
      "name": "RoleGranted",
      "type": "event"
    },
    {
      "anonymous": false,
      "inputs": [
        {
          "indexed": true,
          "internalType": "bytes32",
          "name": "role",
          "type": "bytes32"
        },
        {
          "indexed": true,
          "internalType": "address",
          "name": "account",
          "type": "address"
        },
        {
          "indexed": true,
          "internalType": "address",
          "name": "sender",
          "type": "address"
        }
      ],
      "name": "RoleRevoked",
      "type": "event"
    },
    {
      "anonymous": false,
      "inputs": [
        {
          "indexed": false,
          "internalType": "address",
          "name": "account",
          "type": "address"
        }
      ],
      "name": "Unpaused",
      "type": "event"
    },
    {
      "anonymous": false,
      "inputs": [
        {
          "indexed": true,
          "internalType": "address",
          "name": "implementation",
          "type": "address"
        }
      ],
      "name": "Upgraded",
      "type": "event"
    },
    {
      "inputs": [],
      "name": "DEFAULT_ADMIN_ROLE",
      "outputs": [
        {
          "internalType": "bytes32",
          "name": "",
          "type": "bytes32"
        }
      ],
      "stateMutability": "view",
      "type": "function"
    },
    {
      "inputs": [],
      "name": "GAS_COST",
      "outputs": [
        {
          "internalType": "uint256",
          "name": "",
          "type": "uint256"
        }
      ],
      "stateMutability": "view",
      "type": "function"
    },
    {
      "inputs": [],
      "name": "GAS_PRICE",
      "outputs": [
        {
          "internalType": "uint256",
          "name": "",
          "type": "uint256"
        }
      ],
      "stateMutability": "view",
      "type": "function"
    },
    {
      "inputs": [],
      "name": "OPERATOR_ROLE",
      "outputs": [
        {
          "internalType": "bytes32",
          "name": "",
          "type": "bytes32"
        }
      ],
      "stateMutability": "view",
      "type": "function"
    },
    {
      "inputs": [],
      "name": "PAUSER_ROLE",
      "outputs": [
        {
          "internalType": "bytes32",
          "name": "",
          "type": "bytes32"
        }
      ],
      "stateMutability": "view",
      "type": "function"
    },
    {
      "inputs": [],
      "name": "UPGRADER_ROLE",
      "outputs": [
        {
          "internalType": "bytes32",
          "name": "",
          "type": "bytes32"
        }
      ],
      "stateMutability": "view",
      "type": "function"
    },
    {
      "inputs": [
        {
          "internalType": "address",
          "name": "",
          "type": "address"
        }
      ],
      "name": "allocatedTokens",
      "outputs": [
        {
          "internalType": "uint256",
          "name": "",
          "type": "uint256"
        }
      ],
      "stateMutability": "view",
      "type": "function"
    },
    {
      "inputs": [
        {
          "internalType": "address",
          "name": "",
          "type": "address"
        }
      ],
      "name": "availableBudget",
      "outputs": [
        {
          "internalType": "uint256",
          "name": "",
          "type": "uint256"
        }
      ],
      "stateMutability": "view",
      "type": "function"
    },
    {
      "inputs": [
        {
          "internalType": "address",
          "name": "",
          "type": "address"
        }
      ],
      "name": "claimedTokens",
      "outputs": [
        {
          "internalType": "uint256",
          "name": "",
          "type": "uint256"
        }
      ],
      "stateMutability": "view",
      "type": "function"
    },
    {
      "inputs": [
        {
          "internalType": "bytes32",
          "name": "role",
          "type": "bytes32"
        }
      ],
      "name": "getRoleAdmin",
      "outputs": [
        {
          "internalType": "bytes32",
          "name": "",
          "type": "bytes32"
        }
      ],
      "stateMutability": "view",
      "type": "function"
    },
    {
      "inputs": [
        {
          "internalType": "bytes32",
          "name": "role",
          "type": "bytes32"
        },
        {
          "internalType": "address",
          "name": "account",
          "type": "address"
        }
      ],
      "name": "grantRole",
      "outputs": [],
      "stateMutability": "nonpayable",
      "type": "function"
    },
    {
      "inputs": [
        {
          "internalType": "bytes32",
          "name": "role",
          "type": "bytes32"
        },
        {
          "internalType": "address",
          "name": "account",
          "type": "address"
        }
      ],
      "name": "hasRole",
      "outputs": [
        {
          "internalType": "bool",
          "name": "",
          "type": "bool"
        }
      ],
      "stateMutability": "view",
      "type": "function"
    },
    {
      "inputs": [
        {
          "internalType": "address",
          "name": "_tokenAddress",
          "type": "address"
        },
        {
          "internalType": "address payable",
          "name": "_operator",
          "type": "address"
        }
      ],
      "name": "initialize",
      "outputs": [],
      "stateMutability": "nonpayable",
      "type": "function"
    },
    {
      "inputs": [],
      "name": "operatorAddress",
      "outputs": [
        {
          "internalType": "address payable",
          "name": "",
          "type": "address"
        }
      ],
      "stateMutability": "view",
      "type": "function"
    },
    {
      "inputs": [],
      "name": "pause",
      "outputs": [],
      "stateMutability": "nonpayable",
      "type": "function"
    },
    {
      "inputs": [],
      "name": "paused",
      "outputs": [
        {
          "internalType": "bool",
          "name": "",
          "type": "bool"
        }
      ],
      "stateMutability": "view",
      "type": "function"
    },
    {
      "inputs": [],
      "name": "proxiableUUID",
      "outputs": [
        {
          "internalType": "bytes32",
          "name": "",
          "type": "bytes32"
        }
      ],
      "stateMutability": "view",
      "type": "function"
    },
    {
      "inputs": [
        {
          "internalType": "bytes32",
          "name": "role",
          "type": "bytes32"
        },
        {
          "internalType": "address",
          "name": "account",
          "type": "address"
        }
      ],
      "name": "renounceRole",
      "outputs": [],
      "stateMutability": "nonpayable",
      "type": "function"
    },
    {
      "inputs": [
        {
          "internalType": "bytes32",
          "name": "role",
          "type": "bytes32"
        },
        {
          "internalType": "address",
          "name": "account",
          "type": "address"
        }
      ],
      "name": "revokeRole",
      "outputs": [],
      "stateMutability": "nonpayable",
      "type": "function"
    },
    {
      "inputs": [
        {
          "internalType": "uint256",
          "name": "_value",
          "type": "uint256"
        }
      ],
      "name": "setGasCost",
      "outputs": [],
      "stateMutability": "nonpayable",
      "type": "function"
    },
    {
      "inputs": [
        {
          "internalType": "uint256",
          "name": "_value",
          "type": "uint256"
        }
      ],
      "name": "setGasPrice",
      "outputs": [],
      "stateMutability": "nonpayable",
      "type": "function"
    },
    {
      "inputs": [
        {
          "internalType": "bytes4",
          "name": "interfaceId",
          "type": "bytes4"
        }
      ],
      "name": "supportsInterface",
      "outputs": [
        {
          "internalType": "bool",
          "name": "",
          "type": "bool"
        }
      ],
      "stateMutability": "view",
      "type": "function"
    },
    {
      "inputs": [],
      "name": "tokenAddress",
      "outputs": [
        {
          "internalType": "address",
          "name": "",
          "type": "address"
        }
      ],
      "stateMutability": "view",
      "type": "function"
    },
    {
      "inputs": [],
      "name": "unpause",
      "outputs": [],
      "stateMutability": "nonpayable",
      "type": "function"
    },
    {
      "inputs": [
        {
          "internalType": "address",
          "name": "addr",
          "type": "address"
        },
        {
          "internalType": "uint256",
          "name": "allocated",
          "type": "uint256"
        },
        {
          "internalType": "bool",
          "name": "doClaim",
          "type": "bool"
        }
      ],
      "name": "updateAllocation",
      "outputs": [],
      "stateMutability": "nonpayable",
      "type": "function"
    },
    {
      "inputs": [
        {
          "internalType": "address",
          "name": "newImplementation",
          "type": "address"
        }
      ],
      "name": "upgradeTo",
      "outputs": [],
      "stateMutability": "nonpayable",
      "type": "function"
    },
    {
      "inputs": [
        {
          "internalType": "address",
          "name": "newImplementation",
          "type": "address"
        },
        {
          "internalType": "bytes",
          "name": "data",
          "type": "bytes"
        }
      ],
      "name": "upgradeToAndCall",
      "outputs": [],
      "stateMutability": "payable",
      "type": "function"
    },
    {
      "inputs": [
        {
          "internalType": "address",
          "name": "",
          "type": "address"
        }
      ],
      "name": "usedBudget",
      "outputs": [
        {
          "internalType": "uint256",
          "name": "",
          "type": "uint256"
        }
      ],
      "stateMutability": "view",
      "type": "function"
    },
    {
      "stateMutability": "payable",
      "type": "receive"
    }
  ],
  "bytecode": "0x60a06040523060805234801561001457600080fd5b5061001d610022565b6100e1565b600054610100900460ff161561008e5760405162461bcd60e51b815260206004820152602760248201527f496e697469616c697a61626c653a20636f6e747261637420697320696e697469604482015266616c697a696e6760c81b606482015260840160405180910390fd5b60005460ff908116146100df576000805460ff191660ff9081179091556040519081527f7f26b83ff96e1f2b6a682f133852f6798a09c465da95921460cefb38474024989060200160405180910390a15b565b60805161203d610118600039600081816108f40152818161093401528181610ba901528181610be90152610c61015261203d6000f3fe60806040526004361061014b5760003560e01c806301ffc9a714610418578063127effb21461044d5780631b20d9cb1461047b578063248a9ca3146104b75780632e933de7146104d75780632f2ff15d1461050557806336568abe146105275780633659cfe6146105475780633f4ba83a14610567578063485cc9551461057c5780634f1ef2861461059c5780635212157c146105af57806352d1902d146105dd5780635c975abb146105f25780638456cb591461060a5780638aba46591461061f5780638b0ee5a31461063f57806391d14854146106565780639d76ea5814610676578063a217fddf14610697578063a960c65f146106ac578063bf1fe420146106da578063ca7f103b146106fa578063d547741f14610711578063e63ab1e914610731578063f5b541a614610753578063f72c0d8b14610775578063fcd6d1951461079757600080fd5b36610413576101586107b7565b336000908152610131602052604081208054349290610178908490611acf565b909155505061012e546040516001600160a01b03909116903480156108fc02916000818181858888f193505050501580156101b7573d6000803e3d6000fd5b503360009081526101316020526040902054806102535760405162461bcd60e51b815260206004820152604960248201527f466163696c6974793a206e6f20757365722070726f766964656420627564676560448201527f742c2073656e642045544820746f20636f6e74726163742061646472657373206064820152681d1bc81c99599a5b1b60ba1b608482015260a4015b60405180910390fd5b33600090815261013260205260409020548082116102f45760405162461bcd60e51b815260206004820152605260248201527f466163696c6974793a20757365722070726f766964656420627564676574206960448201527f73206465706c657465642c2073656e642045544820746f20636f6e7472616374606482015271081859191c995cdcc81d1bc81c99599a5b1b60721b608482015260a40161024a565b6101305461012f546103069190611ae2565b6103108284611af9565b101561039e5760405162461bcd60e51b815260206004820152605160248201527f466163696c6974793a206e6f7420656e6f75676820757365722070726f76696460448201527f6564206275646765742c2073656e642045544820746f20636f6e7472616374206064820152701859191c995cdcc81d1bc81c99599a5b1b607a1b608482015260a40161024a565b336000818152610132602090815260408083205461013190925290912054600080516020611fe8833981519152916103d591611af9565b60405190815260200160405180910390a260405133907fd64f8dd6d2d31b58db35193816647db9f02c0ca1de29379c2d02d0aa46d2fa6590600090a2005b600080fd5b34801561042457600080fd5b50610438610433366004611b0c565b6107ff565b60405190151581526020015b60405180910390f35b34801561045957600080fd5b5061012e5461046e906001600160a01b031681565b6040516104449190611b36565b34801561048757600080fd5b506104a9610496366004611b5f565b6101336020526000908152604090205481565b604051908152602001610444565b3480156104c357600080fd5b506104a96104d2366004611b7c565b610836565b3480156104e357600080fd5b506104a96104f2366004611b5f565b6101326020526000908152604090205481565b34801561051157600080fd5b50610525610520366004611b95565b61084b565b005b34801561053357600080fd5b50610525610542366004611b95565b61086c565b34801561055357600080fd5b50610525610562366004611b5f565b6108ea565b34801561057357600080fd5b506105256109b2565b34801561058857600080fd5b50610525610597366004611bc5565b6109d2565b6105256105aa366004611c09565b610b9f565b3480156105bb57600080fd5b506104a96105ca366004611b5f565b6101316020526000908152604090205481565b3480156105e957600080fd5b506104a9610c54565b3480156105fe57600080fd5b5060335460ff16610438565b34801561061657600080fd5b50610525610d02565b34801561062b57600080fd5b5061052561063a366004611b7c565b610d22565b34801561064b57600080fd5b506104a96101305481565b34801561066257600080fd5b50610438610671366004611b95565b610d49565b34801561068257600080fd5b5061012d5461046e906001600160a01b031681565b3480156106a357600080fd5b506104a9600081565b3480156106b857600080fd5b506104a96106c7366004611b5f565b6101346020526000908152604090205481565b3480156106e657600080fd5b506105256106f5366004611b7c565b610d74565b34801561070657600080fd5b506104a961012f5481565b34801561071d57600080fd5b5061052561072c366004611b95565b610d9b565b34801561073d57600080fd5b506104a9600080516020611fa183398151915281565b34801561075f57600080fd5b506104a9600080516020611f8183398151915281565b34801561078157600080fd5b506104a9600080516020611f4183398151915281565b3480156107a357600080fd5b506105256107b2366004611cda565b610db7565b60335460ff16156107fd5760405162461bcd60e51b815260206004820152601060248201526f14185d5cd8589b194e881c185d5cd95960821b604482015260640161024a565b565b60006001600160e01b03198216637965db0b60e01b148061083057506301ffc9a760e01b6001600160e01b03198316145b92915050565b60009081526097602052604090206001015490565b61085482610836565b61085d81611266565b6108678383611270565b505050565b6001600160a01b03811633146108dc5760405162461bcd60e51b815260206004820152602f60248201527f416363657373436f6e74726f6c3a2063616e206f6e6c792072656e6f756e636560448201526e103937b632b9903337b91039b2b63360891b606482015260840161024a565b6108e682826112f6565b5050565b6001600160a01b037f00000000000000000000000000000000000000000000000000000000000000001630036109325760405162461bcd60e51b815260040161024a90611d1c565b7f00000000000000000000000000000000000000000000000000000000000000006001600160a01b031661096461135d565b6001600160a01b03161461098a5760405162461bcd60e51b815260040161024a90611d56565b61099381611379565b604080516000808252602082019092526109af91839190611391565b50565b600080516020611fa18339815191526109ca81611266565b6109af6114fc565b600054610100900460ff16158080156109f25750600054600160ff909116105b80610a135750610a0130611548565b158015610a13575060005460ff166001145b610a765760405162461bcd60e51b815260206004820152602e60248201527f496e697469616c697a61626c653a20636f6e747261637420697320616c72656160448201526d191e481a5b9a5d1a585b1a5e995960921b606482015260840161024a565b6000805460ff191660011790558015610a99576000805461ff0019166101001790555b61012d80546001600160a01b038086166001600160a01b03199283161790925561012e80549285169290911691909117905561548c61012f556409502f900061013055610ae4611557565b610aec611586565b610af4611586565b610aff600033611270565b610b17600080516020611fa183398151915233611270565b610b2f600080516020611f4183398151915233611270565b61012e54610b5590600080516020611f81833981519152906001600160a01b0316611270565b8015610867576000805461ff0019169055604051600181527f7f26b83ff96e1f2b6a682f133852f6798a09c465da95921460cefb38474024989060200160405180910390a1505050565b6001600160a01b037f0000000000000000000000000000000000000000000000000000000000000000163003610be75760405162461bcd60e51b815260040161024a90611d1c565b7f00000000000000000000000000000000000000000000000000000000000000006001600160a01b0316610c1961135d565b6001600160a01b031614610c3f5760405162461bcd60e51b815260040161024a90611d56565b610c4882611379565b6108e682826001611391565b6000306001600160a01b037f00000000000000000000000000000000000000000000000000000000000000001614610cef5760405162461bcd60e51b815260206004820152603860248201527f555550535570677261646561626c653a206d757374206e6f742062652063616c6044820152771b1959081d1a1c9bdd59da0819195b1959d85d1958d85b1b60421b606482015260840161024a565b50600080516020611f6183398151915290565b600080516020611fa1833981519152610d1a81611266565b6109af6115ad565b610d2a6107b7565b600080516020611f81833981519152610d4281611266565b5061012f55565b60009182526097602090815260408084206001600160a01b0393909316845291905290205460ff1690565b610d7c6107b7565b600080516020611f81833981519152610d9481611266565b5061013055565b610da482610836565b610dad81611266565b61086783836112f6565b610dbf6107b7565b600080516020611f81833981519152610dd781611266565b6001600160a01b038416610e3f5760405162461bcd60e51b815260206004820152602960248201527f466163696c6974793a2063616e27742075706461746520616c6c6f636174696f60448201526806e20666f72203078360bc1b606482015260840161024a565b6001600160a01b0384166000908152610133602052604090208390556101305461012f54610e6d9190611ae2565b6001600160a01b0385166000908152610132602052604081208054909190610e96908490611acf565b90915550506001600160a01b0384166000908152610132602090815260408083205461013190925282205410610efa576001600160a01b0385166000908152610132602090815260408083205461013190925290912054610ef79190611af9565b90505b82156111eb5760008411610f615760405162461bcd60e51b815260206004820152602860248201527f466163696c6974793a206e6f20746f6b656e7320616c6c6f636174656420666f604482015267391039b2b73232b960c11b606482015260840161024a565b6001600160a01b03851660009081526101346020526040902054808511610fd95760405162461bcd60e51b815260206004820152602660248201527f466163696c6974793a206e6f20746f6b656e7320617661696c61626c6520746f60448201526520636c61696d60d01b606482015260840161024a565b61012d546040516370a0823160e01b81526001600160a01b039091169060009082906370a082319061100f903090600401611b36565b602060405180830381865afa15801561102c573d6000803e3d6000fd5b505050506040513d601f19601f820116820180604052508101906110509190611d90565b9050600061105e8489611af9565b90508082116110bb5760405162461bcd60e51b8152602060048201526024808201527f466163696c6974793a206e6f7420656e6f75676820746f6b656e7320746f20636044820152636c61696d60e01b606482015260840161024a565b60405163a9059cbb60e01b81526001600160a01b038a811660048301526024820183905284169063a9059cbb906044016020604051808303816000875af115801561110a573d6000803e3d6000fd5b505050506040513d601f19601f8201168201806040525081019061112e9190611da9565b6111905760405162461bcd60e51b815260206004820152602d60248201527f466163696c6974793a207472616e73666572206f6620636c61696d61626c652060448201526c1d1bdad95b9cc819985a5b1959609a1b606482015260840161024a565b6001600160a01b03891660008181526101346020526040908190208a9055517f1747857504b94e5be51b1fe4b467e5d2daa63a0d21577089a13fa99f9414dcc8906111de9084815260200190565b60405180910390a2505050505b846001600160a01b0316600080516020611fe88339815191528260405161121491815260200190565b60405180910390a2846001600160a01b03167f183f2ce0b749ed46549cb16586af0c501abab8d242cc4b2076aec30d2dd9c4bc8560405161125791815260200190565b60405180910390a25050505050565b6109af81336115ea565b61127a8282610d49565b6108e65760008281526097602090815260408083206001600160a01b03851684529091529020805460ff191660011790556112b23390565b6001600160a01b0316816001600160a01b0316837f2f8788117e7eff1d82e926ec794901d17c78024a50270940304540a733656f0d60405160405180910390a45050565b6113008282610d49565b156108e65760008281526097602090815260408083206001600160a01b0385168085529252808320805460ff1916905551339285917ff6391f5c32d9c69d2a47ea670b442974b53935d1edc7fd64eb21e047a839171b9190a45050565b600080516020611f61833981519152546001600160a01b031690565b600080516020611f418339815191526108e681611266565b7f4910fdfa16fed3260ed0e7147f7cc6da11a60208b5b9406d12a635614ffd91435460ff16156113c45761086783611643565b826001600160a01b03166352d1902d6040518163ffffffff1660e01b8152600401602060405180830381865afa92505050801561141e575060408051601f3d908101601f1916820190925261141b91810190611d90565b60015b6114815760405162461bcd60e51b815260206004820152602e60248201527f45524331393637557067726164653a206e657720696d706c656d656e7461746960448201526d6f6e206973206e6f74205555505360901b606482015260840161024a565b600080516020611f6183398151915281146114f05760405162461bcd60e51b815260206004820152602960248201527f45524331393637557067726164653a20756e737570706f727465642070726f786044820152681a58589b195555525160ba1b606482015260840161024a565b506108678383836116dd565b611504611708565b6033805460ff191690557f5db9ee0a495bf2e6ff9c91a7834c1ba4fdd244a5e8aa4e537bd38aeae4b073aa335b60405161153e9190611b36565b60405180910390a1565b6001600160a01b03163b151590565b600054610100900460ff1661157e5760405162461bcd60e51b815260040161024a90611dc6565b6107fd611751565b600054610100900460ff166107fd5760405162461bcd60e51b815260040161024a90611dc6565b6115b56107b7565b6033805460ff191660011790557f62e78cea01bee320cd4e420270b5ea74000d11b0c9f74754ebdbfc544b05a2586115313390565b6115f48282610d49565b6108e65761160181611784565b61160c836020611796565b60405160200161161d929190611e35565b60408051601f198184030181529082905262461bcd60e51b825261024a91600401611ea4565b61164c81611548565b6116ae5760405162461bcd60e51b815260206004820152602d60248201527f455243313936373a206e657720696d706c656d656e746174696f6e206973206e60448201526c1bdd08184818dbdb9d1c9858dd609a1b606482015260840161024a565b600080516020611f6183398151915280546001600160a01b0319166001600160a01b0392909216919091179055565b6116e683611938565b6000825111806116f35750805b15610867576117028383611978565b50505050565b60335460ff166107fd5760405162461bcd60e51b815260206004820152601460248201527314185d5cd8589b194e881b9bdd081c185d5cd95960621b604482015260640161024a565b600054610100900460ff166117785760405162461bcd60e51b815260040161024a90611dc6565b6033805460ff19169055565b60606108306001600160a01b03831660145b606060006117a5836002611ae2565b6117b0906002611acf565b6001600160401b038111156117c7576117c7611bf3565b6040519080825280601f01601f1916602001820160405280156117f1576020820181803683370190505b509050600360fc1b8160008151811061180c5761180c611ed7565b60200101906001600160f81b031916908160001a905350600f60fb1b8160018151811061183b5761183b611ed7565b60200101906001600160f81b031916908160001a905350600061185f846002611ae2565b61186a906001611acf565b90505b60018111156118e2576f181899199a1a9b1b9c1cb0b131b232b360811b85600f166010811061189e5761189e611ed7565b1a60f81b8282815181106118b4576118b4611ed7565b60200101906001600160f81b031916908160001a90535060049490941c936118db81611eed565b905061186d565b5083156119315760405162461bcd60e51b815260206004820181905260248201527f537472696e67733a20686578206c656e67746820696e73756666696369656e74604482015260640161024a565b9392505050565b61194181611643565b6040516001600160a01b038216907fbc7cd75a20ee27fd9adebab32041f755214dbc6bffa90cc0225b39da2e5c2d3b90600090a250565b60606119318383604051806060016040528060278152602001611fc1602791396060600080856001600160a01b0316856040516119b59190611f04565b600060405180830381855af49150503d80600081146119f0576040519150601f19603f3d011682016040523d82523d6000602084013e6119f5565b606091505b5091509150611a0686838387611a10565b9695505050505050565b60608315611a7d578251600003611a7657611a2a85611548565b611a765760405162461bcd60e51b815260206004820152601d60248201527f416464726573733a2063616c6c20746f206e6f6e2d636f6e7472616374000000604482015260640161024a565b5081611a87565b611a878383611a8f565b949350505050565b815115611a9f5781518083602001fd5b8060405162461bcd60e51b815260040161024a9190611ea4565b634e487b7160e01b600052601160045260246000fd5b8082018082111561083057610830611ab9565b808202811582820484141761083057610830611ab9565b8181038181111561083057610830611ab9565b600060208284031215611b1e57600080fd5b81356001600160e01b03198116811461193157600080fd5b6001600160a01b0391909116815260200190565b6001600160a01b03811681146109af57600080fd5b600060208284031215611b7157600080fd5b813561193181611b4a565b600060208284031215611b8e57600080fd5b5035919050565b60008060408385031215611ba857600080fd5b823591506020830135611bba81611b4a565b809150509250929050565b60008060408385031215611bd857600080fd5b8235611be381611b4a565b91506020830135611bba81611b4a565b634e487b7160e01b600052604160045260246000fd5b60008060408385031215611c1c57600080fd5b8235611c2781611b4a565b915060208301356001600160401b0380821115611c4357600080fd5b818501915085601f830112611c5757600080fd5b813581811115611c6957611c69611bf3565b604051601f8201601f19908116603f01168101908382118183101715611c9157611c91611bf3565b81604052828152886020848701011115611caa57600080fd5b8260208601602083013760006020848301015280955050505050509250929050565b80151581146109af57600080fd5b600080600060608486031215611cef57600080fd5b8335611cfa81611b4a565b9250602084013591506040840135611d1181611ccc565b809150509250925092565b6020808252602c90820152600080516020611f2183398151915260408201526b19195b1959d85d1958d85b1b60a21b606082015260800190565b6020808252602c90820152600080516020611f2183398151915260408201526b6163746976652070726f787960a01b606082015260800190565b600060208284031215611da257600080fd5b5051919050565b600060208284031215611dbb57600080fd5b815161193181611ccc565b6020808252602b908201527f496e697469616c697a61626c653a20636f6e7472616374206973206e6f74206960408201526a6e697469616c697a696e6760a81b606082015260800190565b60005b83811015611e2c578181015183820152602001611e14565b50506000910152565b76020b1b1b2b9b9a1b7b73a3937b61d1030b1b1b7bab73a1604d1b815260008351611e67816017850160208801611e11565b7001034b99036b4b9b9b4b733903937b6329607d1b6017918401918201528351611e98816028840160208801611e11565b01602801949350505050565b6020815260008251806020840152611ec3816040850160208701611e11565b601f01601f19169190910160400192915050565b634e487b7160e01b600052603260045260246000fd5b600081611efc57611efc611ab9565b506000190190565b60008251611f16818460208701611e11565b919091019291505056fe46756e6374696f6e206d7573742062652063616c6c6564207468726f75676820189ab7a9244df0848122154315af71fe140f3db0fe014031783b0946b8c9d2e3360894a13ba1a3210667c828492db98dca3e2076cc3735a920a3ca505d382bbc97667070c54ef182b0f5858b034beac1b6f3089aa2d3188bb1e8929f4fa9b92965d7a28e3265b37a6474929f336521b332c1681b933f6cb9f3376673440d862a416464726573733a206c6f772d6c6576656c2064656c65676174652063616c6c206661696c65644b042000dfa348afdcb29ced43bb8eb07e648ee9a7f3867e17fc7bb0001a48c4a2646970667358221220432a64c7f271a6bd4f2d8ba6593ad49c027168170c4015fbcf963777c446f97f64736f6c63430008130033",
  "linkReferences": {},
  "deployedLinkReferences": {}
}