{
  "_format": "hh-sol-artifact-1",
  "contractName": "Facility",
  "sourceName": "contracts/Facility.sol",
  "abi": [
    {
      "inputs": [],
      "stateMutability": "nonpayable",
      "type": "constructor"
    },
    {
      "anonymous": false,
      "inputs": [
        {
          "indexed": false,
          "internalType": "address",
          "name": "previousAdmin",
          "type": "address"
        },
        {
          "indexed": false,
          "internalType": "address",
          "name": "newAdmin",
          "type": "address"
        }
      ],
      "name": "AdminChanged",
      "type": "event"
    },
    {
      "anonymous": false,
      "inputs": [
        {
          "indexed": true,
          "internalType": "address",
          "name": "_account",
          "type": "address"
        },
        {
          "indexed": false,
          "internalType": "uint256",
          "name": "_value",
          "type": "uint256"
        }
      ],
      "name": "AllocationClaimed",
      "type": "event"
    },
    {
      "anonymous": false,
      "inputs": [
        {
          "indexed": true,
          "internalType": "address",
          "name": "_account",
          "type": "address"
        },
        {
          "indexed": false,
          "internalType": "uint256",
          "name": "_value",
          "type": "uint256"
        }
      ],
      "name": "AllocationUpdated",
      "type": "event"
    },
    {
      "anonymous": false,
      "inputs": [
        {
          "indexed": true,
          "internalType": "address",
          "name": "beacon",
          "type": "address"
        }
      ],
      "name": "BeaconUpgraded",
      "type": "event"
    },
    {
      "anonymous": false,
      "inputs": [
        {
          "indexed": true,
          "internalType": "address",
          "name": "sender",
          "type": "address"
        },
        {
          "indexed": false,
          "internalType": "uint256",
          "name": "amount",
          "type": "uint256"
        }
      ],
      "name": "GasBudgetUpdated",
      "type": "event"
    },
    {
      "anonymous": false,
      "inputs": [
        {
          "indexed": false,
          "internalType": "uint8",
          "name": "version",
          "type": "uint8"
        }
      ],
      "name": "Initialized",
      "type": "event"
    },
    {
      "anonymous": false,
      "inputs": [
        {
          "indexed": false,
          "internalType": "address",
          "name": "account",
          "type": "address"
        }
      ],
      "name": "Paused",
      "type": "event"
    },
    {
      "anonymous": false,
      "inputs": [
        {
          "indexed": true,
          "internalType": "address",
          "name": "_account",
          "type": "address"
        }
      ],
      "name": "RequestingUpdate",
      "type": "event"
    },
    {
      "anonymous": false,
      "inputs": [
        {
          "indexed": true,
          "internalType": "bytes32",
          "name": "role",
          "type": "bytes32"
        },
        {
          "indexed": true,
          "internalType": "bytes32",
          "name": "previousAdminRole",
          "type": "bytes32"
        },
        {
          "indexed": true,
          "internalType": "bytes32",
          "name": "newAdminRole",
          "type": "bytes32"
        }
      ],
      "name": "RoleAdminChanged",
      "type": "event"
    },
    {
      "anonymous": false,
      "inputs": [
        {
          "indexed": true,
          "internalType": "bytes32",
          "name": "role",
          "type": "bytes32"
        },
        {
          "indexed": true,
          "internalType": "address",
          "name": "account",
          "type": "address"
        },
        {
          "indexed": true,
          "internalType": "address",
          "name": "sender",
          "type": "address"
        }
      ],
      "name": "RoleGranted",
      "type": "event"
    },
    {
      "anonymous": false,
      "inputs": [
        {
          "indexed": true,
          "internalType": "bytes32",
          "name": "role",
          "type": "bytes32"
        },
        {
          "indexed": true,
          "internalType": "address",
          "name": "account",
          "type": "address"
        },
        {
          "indexed": true,
          "internalType": "address",
          "name": "sender",
          "type": "address"
        }
      ],
      "name": "RoleRevoked",
      "type": "event"
    },
    {
      "anonymous": false,
      "inputs": [
        {
          "indexed": false,
          "internalType": "address",
          "name": "account",
          "type": "address"
        }
      ],
      "name": "Unpaused",
      "type": "event"
    },
    {
      "anonymous": false,
      "inputs": [
        {
          "indexed": true,
          "internalType": "address",
          "name": "implementation",
          "type": "address"
        }
      ],
      "name": "Upgraded",
      "type": "event"
    },
    {
      "inputs": [],
      "name": "DEFAULT_ADMIN_ROLE",
      "outputs": [
        {
          "internalType": "bytes32",
          "name": "",
          "type": "bytes32"
        }
      ],
      "stateMutability": "view",
      "type": "function"
    },
    {
      "inputs": [],
      "name": "GAS_COST",
      "outputs": [
        {
          "internalType": "uint256",
          "name": "",
          "type": "uint256"
        }
      ],
      "stateMutability": "view",
      "type": "function"
    },
    {
      "inputs": [],
      "name": "GAS_PRICE",
      "outputs": [
        {
          "internalType": "uint256",
          "name": "",
          "type": "uint256"
        }
      ],
      "stateMutability": "view",
      "type": "function"
    },
    {
      "inputs": [],
      "name": "OPERATOR_ROLE",
      "outputs": [
        {
          "internalType": "bytes32",
          "name": "",
          "type": "bytes32"
        }
      ],
      "stateMutability": "view",
      "type": "function"
    },
    {
      "inputs": [],
      "name": "PAUSER_ROLE",
      "outputs": [
        {
          "internalType": "bytes32",
          "name": "",
          "type": "bytes32"
        }
      ],
      "stateMutability": "view",
      "type": "function"
    },
    {
      "inputs": [],
      "name": "UPGRADER_ROLE",
      "outputs": [
        {
          "internalType": "bytes32",
          "name": "",
          "type": "bytes32"
        }
      ],
      "stateMutability": "view",
      "type": "function"
    },
    {
      "inputs": [
        {
          "internalType": "address",
          "name": "addr",
          "type": "address"
        }
      ],
      "name": "_claimAllocation",
      "outputs": [],
      "stateMutability": "nonpayable",
      "type": "function"
    },
    {
      "inputs": [
        {
          "internalType": "address",
          "name": "addr",
          "type": "address"
        }
      ],
      "name": "_requestUpdate",
      "outputs": [],
      "stateMutability": "nonpayable",
      "type": "function"
    },
    {
      "inputs": [
        {
          "internalType": "address",
          "name": "",
          "type": "address"
        }
      ],
      "name": "allocatedTokens",
      "outputs": [
        {
          "internalType": "uint256",
          "name": "",
          "type": "uint256"
        }
      ],
      "stateMutability": "view",
      "type": "function"
    },
    {
      "inputs": [
        {
          "internalType": "address",
          "name": "",
          "type": "address"
        }
      ],
      "name": "availableBudget",
      "outputs": [
        {
          "internalType": "uint256",
          "name": "",
          "type": "uint256"
        }
      ],
      "stateMutability": "view",
      "type": "function"
    },
    {
      "inputs": [],
      "name": "claimAllocation",
      "outputs": [],
      "stateMutability": "nonpayable",
      "type": "function"
    },
    {
      "inputs": [
        {
          "internalType": "address",
          "name": "",
          "type": "address"
        }
      ],
      "name": "claimedTokens",
      "outputs": [
        {
          "internalType": "uint256",
          "name": "",
          "type": "uint256"
        }
      ],
      "stateMutability": "view",
      "type": "function"
    },
    {
      "inputs": [
        {
          "internalType": "bytes32",
          "name": "role",
          "type": "bytes32"
        }
      ],
      "name": "getRoleAdmin",
      "outputs": [
        {
          "internalType": "bytes32",
          "name": "",
          "type": "bytes32"
        }
      ],
      "stateMutability": "view",
      "type": "function"
    },
    {
      "inputs": [
        {
          "internalType": "bytes32",
          "name": "role",
          "type": "bytes32"
        },
        {
          "internalType": "address",
          "name": "account",
          "type": "address"
        }
      ],
      "name": "grantRole",
      "outputs": [],
      "stateMutability": "nonpayable",
      "type": "function"
    },
    {
      "inputs": [
        {
          "internalType": "bytes32",
          "name": "role",
          "type": "bytes32"
        },
        {
          "internalType": "address",
          "name": "account",
          "type": "address"
        }
      ],
      "name": "hasRole",
      "outputs": [
        {
          "internalType": "bool",
          "name": "",
          "type": "bool"
        }
      ],
      "stateMutability": "view",
      "type": "function"
    },
    {
      "inputs": [
        {
          "internalType": "address",
          "name": "_tokenAddress",
          "type": "address"
        },
        {
          "internalType": "address payable",
          "name": "_operator",
          "type": "address"
        }
      ],
      "name": "initialize",
      "outputs": [],
      "stateMutability": "nonpayable",
      "type": "function"
    },
    {
      "inputs": [],
      "name": "operatorAddress",
      "outputs": [
        {
          "internalType": "address payable",
          "name": "",
          "type": "address"
        }
      ],
      "stateMutability": "view",
      "type": "function"
    },
    {
      "inputs": [],
      "name": "pause",
      "outputs": [],
      "stateMutability": "nonpayable",
      "type": "function"
    },
    {
      "inputs": [],
      "name": "paused",
      "outputs": [
        {
          "internalType": "bool",
          "name": "",
          "type": "bool"
        }
      ],
      "stateMutability": "view",
      "type": "function"
    },
    {
      "inputs": [],
      "name": "proxiableUUID",
      "outputs": [
        {
          "internalType": "bytes32",
          "name": "",
          "type": "bytes32"
        }
      ],
      "stateMutability": "view",
      "type": "function"
    },
    {
      "inputs": [],
      "name": "receiveAndRequestUpdate",
      "outputs": [],
      "stateMutability": "payable",
      "type": "function"
    },
    {
      "inputs": [
        {
          "internalType": "bytes32",
          "name": "role",
          "type": "bytes32"
        },
        {
          "internalType": "address",
          "name": "account",
          "type": "address"
        }
      ],
      "name": "renounceRole",
      "outputs": [],
      "stateMutability": "nonpayable",
      "type": "function"
    },
    {
      "inputs": [],
      "name": "requestUpdate",
      "outputs": [],
      "stateMutability": "nonpayable",
      "type": "function"
    },
    {
      "inputs": [
        {
          "internalType": "bytes32",
          "name": "role",
          "type": "bytes32"
        },
        {
          "internalType": "address",
          "name": "account",
          "type": "address"
        }
      ],
      "name": "revokeRole",
      "outputs": [],
      "stateMutability": "nonpayable",
      "type": "function"
    },
    {
      "inputs": [
        {
          "internalType": "uint256",
          "name": "_value",
          "type": "uint256"
        }
      ],
      "name": "setGasCost",
      "outputs": [],
      "stateMutability": "nonpayable",
      "type": "function"
    },
    {
      "inputs": [
        {
          "internalType": "uint256",
          "name": "_value",
          "type": "uint256"
        }
      ],
      "name": "setGasPrice",
      "outputs": [],
      "stateMutability": "nonpayable",
      "type": "function"
    },
    {
      "inputs": [
        {
          "internalType": "bytes4",
          "name": "interfaceId",
          "type": "bytes4"
        }
      ],
      "name": "supportsInterface",
      "outputs": [
        {
          "internalType": "bool",
          "name": "",
          "type": "bool"
        }
      ],
      "stateMutability": "view",
      "type": "function"
    },
    {
      "inputs": [],
      "name": "tokenAddress",
      "outputs": [
        {
          "internalType": "address",
          "name": "",
          "type": "address"
        }
      ],
      "stateMutability": "view",
      "type": "function"
    },
    {
      "inputs": [],
      "name": "unpause",
      "outputs": [],
      "stateMutability": "nonpayable",
      "type": "function"
    },
    {
      "inputs": [
        {
          "internalType": "address",
          "name": "addr",
          "type": "address"
        },
        {
          "internalType": "uint256",
          "name": "_value",
          "type": "uint256"
        }
      ],
      "name": "updateAllocation",
      "outputs": [],
      "stateMutability": "nonpayable",
      "type": "function"
    },
    {
      "inputs": [
        {
          "internalType": "address",
          "name": "addr",
          "type": "address"
        },
        {
          "internalType": "uint256",
          "name": "_value",
          "type": "uint256"
        }
      ],
      "name": "updateAndClaimAllocation",
      "outputs": [],
      "stateMutability": "nonpayable",
      "type": "function"
    },
    {
      "inputs": [
        {
          "internalType": "address",
          "name": "newImplementation",
          "type": "address"
        }
      ],
      "name": "upgradeTo",
      "outputs": [],
      "stateMutability": "nonpayable",
      "type": "function"
    },
    {
      "inputs": [
        {
          "internalType": "address",
          "name": "newImplementation",
          "type": "address"
        },
        {
          "internalType": "bytes",
          "name": "data",
          "type": "bytes"
        }
      ],
      "name": "upgradeToAndCall",
      "outputs": [],
      "stateMutability": "payable",
      "type": "function"
    },
    {
      "inputs": [
        {
          "internalType": "address",
          "name": "",
          "type": "address"
        }
      ],
      "name": "usedBudget",
      "outputs": [
        {
          "internalType": "uint256",
          "name": "",
          "type": "uint256"
        }
      ],
      "stateMutability": "view",
      "type": "function"
    },
    {
      "stateMutability": "payable",
      "type": "receive"
    }
  ],
  "bytecode": "0x60a06040523060805234801561001457600080fd5b5061001d610022565b6100e1565b600054610100900460ff161561008e5760405162461bcd60e51b815260206004820152602760248201527f496e697469616c697a61626c653a20636f6e747261637420697320696e697469604482015266616c697a696e6760c81b606482015260840160405180910390fd5b60005460ff908116146100df576000805460ff191660ff9081179091556040519081527f7f26b83ff96e1f2b6a682f133852f6798a09c465da95921460cefb38474024989060200160405180910390a15b565b60805161242962000119600039600081816107bc015281816107fc01528181610a7101528181610ab10152610b2901526124296000f3fe60806040526004361061018d5760003560e01c806301ffc9a714610249578063127effb21461027e5780631b20d9cb146102ac578063248a9ca3146102e85780632e933de7146103085780632f2ff15d1461033657806336568abe146103585780633659cfe6146103785780633f4ba83a14610398578063485cc955146103ad5780634f1ef286146103cd5780635212157c146103e057806352d1902d1461040e5780635c975abb146104235780636b682cb81461043b57806370851703146104435780638456cb59146104635780638aba4659146104785780638b0ee5a31461049857806390c78ce5146104af57806391d14854146104cf5780639c312cfd146104ef5780639d76ea5814610504578063a217fddf14610525578063a960c65f1461053a578063bf1fe42014610568578063ca7f103b14610588578063d1b88c5f1461059f578063d2d1fb25146105bf578063d547741f146105d4578063e63ab1e9146105f4578063f5b541a614610616578063f72c0d8b14610638578063fe287dd81461065a57600080fd5b366102445761019a61067a565b3360009081526101316020526040812080543492906101ba908490611e71565b909155505061012e546040516001600160a01b03909116903480156108fc02916000818181858888f193505050501580156101f9573d6000803e3d6000fd5b503360008181526101326020908152604080832054610131909252909120546000805160206123d48339815191529161023191611e84565b60405190815260200160405180910390a2005b600080fd5b34801561025557600080fd5b50610269610264366004611e97565b6106c7565b60405190151581526020015b60405180910390f35b34801561028a57600080fd5b5061012e5461029f906001600160a01b031681565b6040516102759190611ec1565b3480156102b857600080fd5b506102da6102c7366004611eea565b6101336020526000908152604090205481565b604051908152602001610275565b3480156102f457600080fd5b506102da610303366004611f07565b6106fe565b34801561031457600080fd5b506102da610323366004611eea565b6101326020526000908152604090205481565b34801561034257600080fd5b50610356610351366004611f20565b610713565b005b34801561036457600080fd5b50610356610373366004611f20565b610734565b34801561038457600080fd5b50610356610393366004611eea565b6107b2565b3480156103a457600080fd5b5061035661087a565b3480156103b957600080fd5b506103566103c8366004611f50565b61089a565b6103566103db366004611f94565b610a67565b3480156103ec57600080fd5b506102da6103fb366004611eea565b6101316020526000908152604090205481565b34801561041a57600080fd5b506102da610b1c565b34801561042f57600080fd5b5060335460ff16610269565b610356610bca565b34801561044f57600080fd5b5061035661045e366004612057565b610cd1565b34801561046f57600080fd5b50610356610e35565b34801561048457600080fd5b50610356610493366004611f07565b610e55565b3480156104a457600080fd5b506102da6101305481565b3480156104bb57600080fd5b506103566104ca366004612057565b610e7c565b3480156104db57600080fd5b506102696104ea366004611f20565b611035565b3480156104fb57600080fd5b50610356611060565b34801561051057600080fd5b5061012d5461029f906001600160a01b031681565b34801561053157600080fd5b506102da600081565b34801561054657600080fd5b506102da610555366004611eea565b6101346020526000908152604090205481565b34801561057457600080fd5b50610356610583366004611f07565b61108b565b34801561059457600080fd5b506102da61012f5481565b3480156105ab57600080fd5b506103566105ba366004611eea565b6110b2565b3480156105cb57600080fd5b50610356611426565b3480156105e057600080fd5b506103566105ef366004611f20565b611451565b34801561060057600080fd5b506102da60008051602061238d83398151915281565b34801561062257600080fd5b506102da60008051602061236d83398151915281565b34801561064457600080fd5b506102da60008051602061232d83398151915281565b34801561066657600080fd5b50610356610675366004611eea565b61146d565b60335460ff16156106c55760405162461bcd60e51b815260206004820152601060248201526f14185d5cd8589b194e881c185d5cd95960821b60448201526064015b60405180910390fd5b565b60006001600160e01b03198216637965db0b60e01b14806106f857506301ffc9a760e01b6001600160e01b03198316145b92915050565b60009081526097602052604090206001015490565b61071c826106fe565b6107258161160e565b61072f8383611618565b505050565b6001600160a01b03811633146107a45760405162461bcd60e51b815260206004820152602f60248201527f416363657373436f6e74726f6c3a2063616e206f6e6c792072656e6f756e636560448201526e103937b632b9903337b91039b2b63360891b60648201526084016106bc565b6107ae828261169e565b5050565b6001600160a01b037f00000000000000000000000000000000000000000000000000000000000000001630036107fa5760405162461bcd60e51b81526004016106bc90612083565b7f00000000000000000000000000000000000000000000000000000000000000006001600160a01b031661082c611705565b6001600160a01b0316146108525760405162461bcd60e51b81526004016106bc906120bd565b61085b81611721565b6040805160008082526020820190925261087791839190611739565b50565b60008051602061238d8339815191526108928161160e565b6108776118a4565b600054610100900460ff16158080156108ba5750600054600160ff909116105b806108db57506108c9306118f0565b1580156108db575060005460ff166001145b61093e5760405162461bcd60e51b815260206004820152602e60248201527f496e697469616c697a61626c653a20636f6e747261637420697320616c72656160448201526d191e481a5b9a5d1a585b1a5e995960921b60648201526084016106bc565b6000805460ff191660011790558015610961576000805461ff0019166101001790555b61012d80546001600160a01b038086166001600160a01b03199283161790925561012e80549285169290911691909117905561548c61012f556409502f9000610130556109ac6118ff565b6109b461192e565b6109bc61192e565b6109c7600033611618565b6109df60008051602061238d83398151915233611618565b6109f760008051602061232d83398151915233611618565b61012e54610a1d9060008051602061236d833981519152906001600160a01b0316611618565b801561072f576000805461ff0019169055604051600181527f7f26b83ff96e1f2b6a682f133852f6798a09c465da95921460cefb38474024989060200160405180910390a1505050565b6001600160a01b037f0000000000000000000000000000000000000000000000000000000000000000163003610aaf5760405162461bcd60e51b81526004016106bc90612083565b7f00000000000000000000000000000000000000000000000000000000000000006001600160a01b0316610ae1611705565b6001600160a01b031614610b075760405162461bcd60e51b81526004016106bc906120bd565b610b1082611721565b6107ae82826001611739565b6000306001600160a01b037f00000000000000000000000000000000000000000000000000000000000000001614610bb75760405162461bcd60e51b815260206004820152603860248201527f555550535570677261646561626c653a206d757374206e6f742062652063616c6044820152771b1959081d1a1c9bdd59da0819195b1959d85d1958d85b1b60421b60648201526084016106bc565b5060008051602061234d83398151915290565b610bd261067a565b336000908152610131602052604081208054349290610bf2908490611e71565b909155505061012e546040516001600160a01b03909116903480156108fc02916000818181858888f19350505050158015610c31573d6000803e3d6000fd5b503360008181526101326020908152604080832054610131909252909120546000805160206123d483398151915291610c6991611e84565b60405190815260200160405180910390a2604051631fc50fbb60e31b8152309063fe287dd890610c9d903390600401611ec1565b600060405180830381600087803b158015610cb757600080fd5b505af1158015610ccb573d6000803e3d6000fd5b50505050565b610cd961067a565b60008051602061236d833981519152610cf18161160e565b6001600160a01b038316610d175760405162461bcd60e51b81526004016106bc906120f7565b6001600160a01b0383166000908152610133602052604090208290556101305461012f54610d459190612140565b6001600160a01b0384166000908152610132602052604081208054909190610d6e908490611e71565b90915550506040518281526001600160a01b038416906000805160206122ed8339815191529060200160405180910390a26001600160a01b0383166000908152610132602090815260408083205461013190925282205410610dfe576001600160a01b0384166000908152610132602090815260408083205461013190925290912054610dfb9190611e84565b90505b836001600160a01b03166000805160206123d483398151915282604051610e2791815260200190565b60405180910390a250505050565b60008051602061238d833981519152610e4d8161160e565b610877611955565b610e5d61067a565b60008051602061236d833981519152610e758161160e565b5061012f55565b610e8461067a565b60008051602061236d833981519152610e9c8161160e565b6001600160a01b038316610ec25760405162461bcd60e51b81526004016106bc906120f7565b6001600160a01b0383166000908152610133602052604090208290556101305461012f54610ef09190612140565b6001600160a01b0384166000908152610132602052604081208054909190610f19908490611e71565b90915550506040518281526001600160a01b038416906000805160206122ed8339815191529060200160405180910390a26001600160a01b0383166000908152610132602090815260408083205461013190925282205410610fa9576001600160a01b0384166000908152610132602090815260408083205461013190925290912054610fa69190611e84565b90505b836001600160a01b03166000805160206123d483398151915282604051610fd291815260200190565b60405180910390a260405163d1b88c5f60e01b8152309063d1b88c5f90610ffd908790600401611ec1565b600060405180830381600087803b15801561101757600080fd5b505af115801561102b573d6000803e3d6000fd5b5050505050505050565b60009182526097602090815260408084206001600160a01b0393909316845291905290205460ff1690565b61106861067a565b604051631fc50fbb60e31b8152309063fe287dd890610c9d903390600401611ec1565b61109361067a565b60008051602061236d8339815191526110ab8161160e565b5061013055565b6110ba61067a565b6001600160a01b0381166111215760405162461bcd60e51b815260206004820152602860248201527f466163696c6974793a2063616e277420636c61696d20616c6c6f636174696f6e604482015267020666f72203078360c41b60648201526084016106bc565b6001600160a01b03811660009081526101336020526040902054806111995760405162461bcd60e51b815260206004820152602860248201527f466163696c6974793a206e6f20746f6b656e7320616c6c6f636174656420666f604482015267391039b2b73232b960c11b60648201526084016106bc565b6001600160a01b038216600090815261013460205260409020548082116112115760405162461bcd60e51b815260206004820152602660248201527f466163696c6974793a206e6f20746f6b656e7320617661696c61626c6520746f60448201526520636c61696d60d01b60648201526084016106bc565b61012d546040516370a0823160e01b81526001600160a01b039091169060009082906370a0823190611247903090600401611ec1565b602060405180830381865afa158015611264573d6000803e3d6000fd5b505050506040513d601f19601f820116820180604052508101906112889190612157565b905060006112968486611e84565b90508082116112f35760405162461bcd60e51b8152602060048201526024808201527f466163696c6974793a206e6f7420656e6f75676820746f6b656e7320746f20636044820152636c61696d60e01b60648201526084016106bc565b60405163a9059cbb60e01b81526001600160a01b0387811660048301526024820183905284169063a9059cbb906044016020604051808303816000875af1158015611342573d6000803e3d6000fd5b505050506040513d601f19601f820116820180604052508101906113669190612170565b6113c85760405162461bcd60e51b815260206004820152602d60248201527f466163696c6974793a207472616e73666572206f6620636c61696d61626c652060448201526c1d1bdad95b9cc819985a5b1959609a1b60648201526084016106bc565b6001600160a01b0386166000818152610134602052604090819020879055517f1747857504b94e5be51b1fe4b467e5d2daa63a0d21577089a13fa99f9414dcc8906114169084815260200190565b60405180910390a2505050505050565b61142e61067a565b60405163d1b88c5f60e01b8152309063d1b88c5f90610c9d903390600401611ec1565b61145a826106fe565b6114638161160e565b61072f838361169e565b61147561067a565b60006101305461012f546114899190612140565b6001600160a01b03831660009081526101316020908152604080832054610132909252909120549192509080821161153a5760405162461bcd60e51b815260206004820152604860248201527f466163696c6974793a20726571756972657320757365722070726f766964656460448201527f206761732062756467657420746f2063726561746520616c6c6f636174696f6e606482015267207570646174657360c01b608482015260a4016106bc565b826115458284611e84565b10156115d45760405162461bcd60e51b815260206004820152605260248201527f466163696c6974793a20757365722070726f766964656420627564676574206960448201527f73206465706c657465642c2073656e642045544820746f20636f6e7472616374606482015271081859191c995cdcc81d1bc81c99599a5b1b60721b608482015260a4016106bc565b6040516001600160a01b038516907fd64f8dd6d2d31b58db35193816647db9f02c0ca1de29379c2d02d0aa46d2fa6590600090a250505050565b6108778133611992565b6116228282611035565b6107ae5760008281526097602090815260408083206001600160a01b03851684529091529020805460ff1916600117905561165a3390565b6001600160a01b0316816001600160a01b0316837f2f8788117e7eff1d82e926ec794901d17c78024a50270940304540a733656f0d60405160405180910390a45050565b6116a88282611035565b156107ae5760008281526097602090815260408083206001600160a01b0385168085529252808320805460ff1916905551339285917ff6391f5c32d9c69d2a47ea670b442974b53935d1edc7fd64eb21e047a839171b9190a45050565b60008051602061234d833981519152546001600160a01b031690565b60008051602061232d8339815191526107ae8161160e565b7f4910fdfa16fed3260ed0e7147f7cc6da11a60208b5b9406d12a635614ffd91435460ff161561176c5761072f836119eb565b826001600160a01b03166352d1902d6040518163ffffffff1660e01b8152600401602060405180830381865afa9250505080156117c6575060408051601f3d908101601f191682019092526117c391810190612157565b60015b6118295760405162461bcd60e51b815260206004820152602e60248201527f45524331393637557067726164653a206e657720696d706c656d656e7461746960448201526d6f6e206973206e6f74205555505360901b60648201526084016106bc565b60008051602061234d83398151915281146118985760405162461bcd60e51b815260206004820152602960248201527f45524331393637557067726164653a20756e737570706f727465642070726f786044820152681a58589b195555525160ba1b60648201526084016106bc565b5061072f838383611a85565b6118ac611aaa565b6033805460ff191690557f5db9ee0a495bf2e6ff9c91a7834c1ba4fdd244a5e8aa4e537bd38aeae4b073aa335b6040516118e69190611ec1565b60405180910390a1565b6001600160a01b03163b151590565b600054610100900460ff166119265760405162461bcd60e51b81526004016106bc90612192565b6106c5611af3565b600054610100900460ff166106c55760405162461bcd60e51b81526004016106bc90612192565b61195d61067a565b6033805460ff191660011790557f62e78cea01bee320cd4e420270b5ea74000d11b0c9f74754ebdbfc544b05a2586118d93390565b61199c8282611035565b6107ae576119a981611b26565b6119b4836020611b38565b6040516020016119c5929190612201565b60408051601f198184030181529082905262461bcd60e51b82526106bc91600401612270565b6119f4816118f0565b611a565760405162461bcd60e51b815260206004820152602d60248201527f455243313936373a206e657720696d706c656d656e746174696f6e206973206e60448201526c1bdd08184818dbdb9d1c9858dd609a1b60648201526084016106bc565b60008051602061234d83398151915280546001600160a01b0319166001600160a01b0392909216919091179055565b611a8e83611cda565b600082511180611a9b5750805b1561072f57610ccb8383611d1a565b60335460ff166106c55760405162461bcd60e51b815260206004820152601460248201527314185d5cd8589b194e881b9bdd081c185d5cd95960621b60448201526064016106bc565b600054610100900460ff16611b1a5760405162461bcd60e51b81526004016106bc90612192565b6033805460ff19169055565b60606106f86001600160a01b03831660145b60606000611b47836002612140565b611b52906002611e71565b6001600160401b03811115611b6957611b69611f7e565b6040519080825280601f01601f191660200182016040528015611b93576020820181803683370190505b509050600360fc1b81600081518110611bae57611bae6122a3565b60200101906001600160f81b031916908160001a905350600f60fb1b81600181518110611bdd57611bdd6122a3565b60200101906001600160f81b031916908160001a9053506000611c01846002612140565b611c0c906001611e71565b90505b6001811115611c84576f181899199a1a9b1b9c1cb0b131b232b360811b85600f1660108110611c4057611c406122a3565b1a60f81b828281518110611c5657611c566122a3565b60200101906001600160f81b031916908160001a90535060049490941c93611c7d816122b9565b9050611c0f565b508315611cd35760405162461bcd60e51b815260206004820181905260248201527f537472696e67733a20686578206c656e67746820696e73756666696369656e7460448201526064016106bc565b9392505050565b611ce3816119eb565b6040516001600160a01b038216907fbc7cd75a20ee27fd9adebab32041f755214dbc6bffa90cc0225b39da2e5c2d3b90600090a250565b6060611cd383836040518060600160405280602781526020016123ad602791396060600080856001600160a01b031685604051611d5791906122d0565b600060405180830381855af49150503d8060008114611d92576040519150601f19603f3d011682016040523d82523d6000602084013e611d97565b606091505b5091509150611da886838387611db2565b9695505050505050565b60608315611e1f578251600003611e1857611dcc856118f0565b611e185760405162461bcd60e51b815260206004820152601d60248201527f416464726573733a2063616c6c20746f206e6f6e2d636f6e747261637400000060448201526064016106bc565b5081611e29565b611e298383611e31565b949350505050565b815115611e415781518083602001fd5b8060405162461bcd60e51b81526004016106bc9190612270565b634e487b7160e01b600052601160045260246000fd5b808201808211156106f8576106f8611e5b565b818103818111156106f8576106f8611e5b565b600060208284031215611ea957600080fd5b81356001600160e01b031981168114611cd357600080fd5b6001600160a01b0391909116815260200190565b6001600160a01b038116811461087757600080fd5b600060208284031215611efc57600080fd5b8135611cd381611ed5565b600060208284031215611f1957600080fd5b5035919050565b60008060408385031215611f3357600080fd5b823591506020830135611f4581611ed5565b809150509250929050565b60008060408385031215611f6357600080fd5b8235611f6e81611ed5565b91506020830135611f4581611ed5565b634e487b7160e01b600052604160045260246000fd5b60008060408385031215611fa757600080fd5b8235611fb281611ed5565b915060208301356001600160401b0380821115611fce57600080fd5b818501915085601f830112611fe257600080fd5b813581811115611ff457611ff4611f7e565b604051601f8201601f19908116603f0116810190838211818310171561201c5761201c611f7e565b8160405282815288602084870101111561203557600080fd5b8260208601602083013760006020848301015280955050505050509250929050565b6000806040838503121561206a57600080fd5b823561207581611ed5565b946020939093013593505050565b6020808252602c9082015260008051602061230d83398151915260408201526b19195b1959d85d1958d85b1b60a21b606082015260800190565b6020808252602c9082015260008051602061230d83398151915260408201526b6163746976652070726f787960a01b606082015260800190565b60208082526029908201527f466163696c6974793a2063616e27742075706461746520616c6c6f636174696f60408201526806e20666f72203078360bc1b606082015260800190565b80820281158282048414176106f8576106f8611e5b565b60006020828403121561216957600080fd5b5051919050565b60006020828403121561218257600080fd5b81518015158114611cd357600080fd5b6020808252602b908201527f496e697469616c697a61626c653a20636f6e7472616374206973206e6f74206960408201526a6e697469616c697a696e6760a81b606082015260800190565b60005b838110156121f85781810151838201526020016121e0565b50506000910152565b76020b1b1b2b9b9a1b7b73a3937b61d1030b1b1b7bab73a1604d1b8152600083516122338160178501602088016121dd565b7001034b99036b4b9b9b4b733903937b6329607d1b60179184019182015283516122648160288401602088016121dd565b01602801949350505050565b602081526000825180602084015261228f8160408501602087016121dd565b601f01601f19169190910160400192915050565b634e487b7160e01b600052603260045260246000fd5b6000816122c8576122c8611e5b565b506000190190565b600082516122e28184602087016121dd565b919091019291505056fe183f2ce0b749ed46549cb16586af0c501abab8d242cc4b2076aec30d2dd9c4bc46756e6374696f6e206d7573742062652063616c6c6564207468726f75676820189ab7a9244df0848122154315af71fe140f3db0fe014031783b0946b8c9d2e3360894a13ba1a3210667c828492db98dca3e2076cc3735a920a3ca505d382bbc97667070c54ef182b0f5858b034beac1b6f3089aa2d3188bb1e8929f4fa9b92965d7a28e3265b37a6474929f336521b332c1681b933f6cb9f3376673440d862a416464726573733a206c6f772d6c6576656c2064656c65676174652063616c6c206661696c65644b042000dfa348afdcb29ced43bb8eb07e648ee9a7f3867e17fc7bb0001a48c4a264697066735822122081ab8122338795e0778c116d76bca5e01d88b6dfae590907c51cfcdf6661f9e264736f6c63430008130033",
  "linkReferences": {},
  "deployedLinkReferences": {}
}